{
	"EduPayChain.sol": {
		"EduPayChain": {
			"abi": [
				{
					"inputs": [],
					"stateMutability": "nonpayable",
					"type": "constructor"
				},
				{
					"inputs": [],
					"name": "admin",
					"outputs": [
						{
							"internalType": "address",
							"name": "",
							"type": "address"
						}
					],
					"stateMutability": "view",
					"type": "function"
				},
				{
					"inputs": [
						{
							"internalType": "uint256",
							"name": "_id",
							"type": "uint256"
						}
					],
					"name": "checkStatus",
					"outputs": [
						{
							"internalType": "enum EduPayChain.Status",
							"name": "",
							"type": "uint8"
						}
					],
					"stateMutability": "view",
					"type": "function"
				},
				{
					"inputs": [],
					"name": "paymentCount",
					"outputs": [
						{
							"internalType": "uint256",
							"name": "",
							"type": "uint256"
						}
					],
					"stateMutability": "view",
					"type": "function"
				},
				{
					"inputs": [
						{
							"internalType": "uint256",
							"name": "",
							"type": "uint256"
						}
					],
					"name": "payments",
					"outputs": [
						{
							"internalType": "string",
							"name": "nim",
							"type": "string"
						},
						{
							"internalType": "string",
							"name": "semester",
							"type": "string"
						},
						{
							"internalType": "uint256",
							"name": "amount",
							"type": "uint256"
						},
						{
							"internalType": "string",
							"name": "proofHash",
							"type": "string"
						},
						{
							"internalType": "enum EduPayChain.Status",
							"name": "status",
							"type": "uint8"
						}
					],
					"stateMutability": "view",
					"type": "function"
				},
				{
					"inputs": [
						{
							"internalType": "uint256",
							"name": "_id",
							"type": "uint256"
						}
					],
					"name": "rejectPayment",
					"outputs": [],
					"stateMutability": "nonpayable",
					"type": "function"
				},
				{
					"inputs": [
						{
							"internalType": "string",
							"name": "_nim",
							"type": "string"
						},
						{
							"internalType": "string",
							"name": "_semester",
							"type": "string"
						},
						{
							"internalType": "uint256",
							"name": "_amount",
							"type": "uint256"
						},
						{
							"internalType": "string",
							"name": "_proofHash",
							"type": "string"
						}
					],
					"name": "submitPayment",
					"outputs": [],
					"stateMutability": "nonpayable",
					"type": "function"
				},
				{
					"inputs": [
						{
							"internalType": "uint256",
							"name": "_id",
							"type": "uint256"
						}
					],
					"name": "verifyPayment",
					"outputs": [],
					"stateMutability": "nonpayable",
					"type": "function"
				}
			],
			"devdoc": {
				"kind": "dev",
				"methods": {},
				"version": 1
			},
			"evm": {
				"assembly": "    /* \"EduPayChain.sol\":61:1311  contract EduPayChain {... */\n  mstore(0x40, 0x80)\n    /* \"EduPayChain.sol\":538:589  constructor() {... */\n  callvalue\n  dup1\n  iszero\n  tag_1\n  jumpi\n  0x00\n  dup1\n  revert\ntag_1:\n  pop\n    /* \"EduPayChain.sol\":571:581  msg.sender */\n  caller\n    /* \"EduPayChain.sol\":563:568  admin */\n  0x00\n  dup1\n    /* \"EduPayChain.sol\":563:581  admin = msg.sender */\n  0x0100\n  exp\n  dup2\n  sload\n  dup2\n  0xffffffffffffffffffffffffffffffffffffffff\n  mul\n  not\n  and\n  swap1\n  dup4\n  0xffffffffffffffffffffffffffffffffffffffff\n  and\n  mul\n  or\n  swap1\n  sstore\n  pop\n    /* \"EduPayChain.sol\":61:1311  contract EduPayChain {... */\n  dataSize(sub_0)\n  dup1\n  dataOffset(sub_0)\n  0x00\n  codecopy\n  0x00\n  return\nstop\n\nsub_0: assembly {\n        /* \"EduPayChain.sol\":61:1311  contract EduPayChain {... */\n      mstore(0x40, 0x80)\n      callvalue\n      dup1\n      iszero\n      tag_1\n      jumpi\n      0x00\n      dup1\n      revert\n    tag_1:\n      pop\n      jumpi(tag_2, lt(calldatasize, 0x04))\n      shr(0xe0, calldataload(0x00))\n      dup1\n      0x87d81789\n      gt\n      tag_10\n      jumpi\n      dup1\n      0x87d81789\n      eq\n      tag_6\n      jumpi\n      dup1\n      0x8d920b02\n      eq\n      tag_7\n      jumpi\n      dup1\n      0xb9c6664d\n      eq\n      tag_8\n      jumpi\n      dup1\n      0xf851a440\n      eq\n      tag_9\n      jumpi\n      jump(tag_2)\n    tag_10:\n      dup1\n      0x0937e68a\n      eq\n      tag_3\n      jumpi\n      dup1\n      0x2858c764\n      eq\n      tag_4\n      jumpi\n      dup1\n      0x5b057fd1\n      eq\n      tag_5\n      jumpi\n    tag_2:\n      0x00\n      dup1\n      revert\n        /* \"EduPayChain.sol\":403:427  uint public paymentCount */\n    tag_3:\n      tag_11\n      tag_12\n      jump\t// in\n    tag_11:\n      mload(0x40)\n      tag_13\n      swap2\n      swap1\n      tag_14\n      jump\t// in\n    tag_13:\n      mload(0x40)\n      dup1\n      swap2\n      sub\n      swap1\n      return\n        /* \"EduPayChain.sol\":1203:1308  function checkStatus(uint _id) public view returns(Status) {... */\n    tag_4:\n      tag_15\n      0x04\n      dup1\n      calldatasize\n      sub\n      dup2\n      add\n      swap1\n      tag_16\n      swap2\n      swap1\n      tag_17\n      jump\t// in\n    tag_16:\n      tag_18\n      jump\t// in\n    tag_15:\n      mload(0x40)\n      tag_19\n      swap2\n      swap1\n      tag_20\n      jump\t// in\n    tag_19:\n      mload(0x40)\n      dup1\n      swap2\n      sub\n      swap1\n      return\n        /* \"EduPayChain.sol\":973:1080  function verifyPayment(uint _id) public onlyAdmin {... */\n    tag_5:\n      tag_21\n      0x04\n      dup1\n      calldatasize\n      sub\n      dup2\n      add\n      swap1\n      tag_22\n      swap2\n      swap1\n      tag_17\n      jump\t// in\n    tag_22:\n      tag_23\n      jump\t// in\n    tag_21:\n      stop\n        /* \"EduPayChain.sol\":354:394  mapping(uint => Payment) public payments */\n    tag_6:\n      tag_24\n      0x04\n      dup1\n      calldatasize\n      sub\n      dup2\n      add\n      swap1\n      tag_25\n      swap2\n      swap1\n      tag_17\n      jump\t// in\n    tag_25:\n      tag_26\n      jump\t// in\n    tag_24:\n      mload(0x40)\n      tag_27\n      swap6\n      swap5\n      swap4\n      swap3\n      swap2\n      swap1\n      tag_28\n      jump\t// in\n    tag_27:\n      mload(0x40)\n      dup1\n      swap2\n      sub\n      swap1\n      return\n        /* \"EduPayChain.sol\":1088:1195  function rejectPayment(uint _id) public onlyAdmin {... */\n    tag_7:\n      tag_29\n      0x04\n      dup1\n      calldatasize\n      sub\n      dup2\n      add\n      swap1\n      tag_30\n      swap2\n      swap1\n      tag_17\n      jump\t// in\n    tag_30:\n      tag_31\n      jump\t// in\n    tag_29:\n      stop\n        /* \"EduPayChain.sol\":597:965  function submitPayment(... */\n    tag_8:\n      tag_32\n      0x04\n      dup1\n      calldatasize\n      sub\n      dup2\n      add\n      swap1\n      tag_33\n      swap2\n      swap1\n      tag_34\n      jump\t// in\n    tag_33:\n      tag_35\n      jump\t// in\n    tag_32:\n      stop\n        /* \"EduPayChain.sol\":91:111  address public admin */\n    tag_9:\n      tag_36\n      tag_37\n      jump\t// in\n    tag_36:\n      mload(0x40)\n      tag_38\n      swap2\n      swap1\n      tag_39\n      jump\t// in\n    tag_38:\n      mload(0x40)\n      dup1\n      swap2\n      sub\n      swap1\n      return\n        /* \"EduPayChain.sol\":403:427  uint public paymentCount */\n    tag_12:\n      sload(0x02)\n      dup2\n      jump\t// out\n        /* \"EduPayChain.sol\":1203:1308  function checkStatus(uint _id) public view returns(Status) {... */\n    tag_18:\n        /* \"EduPayChain.sol\":1254:1260  Status */\n      0x00\n        /* \"EduPayChain.sol\":1280:1288  payments */\n      0x01\n        /* \"EduPayChain.sol\":1280:1293  payments[_id] */\n      0x00\n        /* \"EduPayChain.sol\":1289:1292  _id */\n      dup4\n        /* \"EduPayChain.sol\":1280:1293  payments[_id] */\n      dup2\n      mstore\n      0x20\n      add\n      swap1\n      dup2\n      mstore\n      0x20\n      add\n      0x00\n      keccak256\n        /* \"EduPayChain.sol\":1280:1300  payments[_id].status */\n      0x04\n      add\n      0x00\n      swap1\n      sload\n      swap1\n      0x0100\n      exp\n      swap1\n      div\n      0xff\n      and\n        /* \"EduPayChain.sol\":1273:1300  return payments[_id].status */\n      swap1\n      pop\n        /* \"EduPayChain.sol\":1203:1308  function checkStatus(uint _id) public view returns(Status) {... */\n      swap2\n      swap1\n      pop\n      jump\t// out\n        /* \"EduPayChain.sol\":973:1080  function verifyPayment(uint _id) public onlyAdmin {... */\n    tag_23:\n        /* \"EduPayChain.sol\":490:495  admin */\n      0x00\n      dup1\n      sload\n      swap1\n      0x0100\n      exp\n      swap1\n      div\n      0xffffffffffffffffffffffffffffffffffffffff\n      and\n        /* \"EduPayChain.sol\":476:495  msg.sender == admin */\n      0xffffffffffffffffffffffffffffffffffffffff\n      and\n        /* \"EduPayChain.sol\":476:486  msg.sender */\n      caller\n        /* \"EduPayChain.sol\":476:495  msg.sender == admin */\n      0xffffffffffffffffffffffffffffffffffffffff\n      and\n      eq\n        /* \"EduPayChain.sol\":468:510  require(msg.sender == admin, \"Admin only\") */\n      tag_42\n      jumpi\n      mload(0x40)\n      0x08c379a000000000000000000000000000000000000000000000000000000000\n      dup2\n      mstore\n      0x04\n      add\n      tag_43\n      swap1\n      tag_44\n      jump\t// in\n    tag_43:\n      mload(0x40)\n      dup1\n      swap2\n      sub\n      swap1\n      revert\n    tag_42:\n        /* \"EduPayChain.sol\":1057:1072  Status.Verified */\n      0x01\n        /* \"EduPayChain.sol\":1034:1042  payments */\n      dup1\n        /* \"EduPayChain.sol\":1034:1047  payments[_id] */\n      0x00\n        /* \"EduPayChain.sol\":1043:1046  _id */\n      dup4\n        /* \"EduPayChain.sol\":1034:1047  payments[_id] */\n      dup2\n      mstore\n      0x20\n      add\n      swap1\n      dup2\n      mstore\n      0x20\n      add\n      0x00\n      keccak256\n        /* \"EduPayChain.sol\":1034:1054  payments[_id].status */\n      0x04\n      add\n      0x00\n        /* \"EduPayChain.sol\":1034:1072  payments[_id].status = Status.Verified */\n      0x0100\n      exp\n      dup2\n      sload\n      dup2\n      0xff\n      mul\n      not\n      and\n      swap1\n      dup4\n      0x02\n      dup2\n      gt\n      iszero\n      tag_46\n      jumpi\n      tag_47\n      tag_48\n      jump\t// in\n    tag_47:\n    tag_46:\n      mul\n      or\n      swap1\n      sstore\n      pop\n        /* \"EduPayChain.sol\":973:1080  function verifyPayment(uint _id) public onlyAdmin {... */\n      pop\n      jump\t// out\n        /* \"EduPayChain.sol\":354:394  mapping(uint => Payment) public payments */\n    tag_26:\n      mstore(0x20, 0x01)\n      dup1\n      0x00\n      mstore\n      keccak256(0x00, 0x40)\n      0x00\n      swap2\n      pop\n      swap1\n      pop\n      dup1\n      0x00\n      add\n      dup1\n      sload\n      tag_49\n      swap1\n      tag_50\n      jump\t// in\n    tag_49:\n      dup1\n      0x1f\n      add\n      0x20\n      dup1\n      swap2\n      div\n      mul\n      0x20\n      add\n      mload(0x40)\n      swap1\n      dup2\n      add\n      0x40\n      mstore\n      dup1\n      swap3\n      swap2\n      swap1\n      dup2\n      dup2\n      mstore\n      0x20\n      add\n      dup3\n      dup1\n      sload\n      tag_51\n      swap1\n      tag_50\n      jump\t// in\n    tag_51:\n      dup1\n      iszero\n      tag_52\n      jumpi\n      dup1\n      0x1f\n      lt\n      tag_53\n      jumpi\n      0x0100\n      dup1\n      dup4\n      sload\n      div\n      mul\n      dup4\n      mstore\n      swap2\n      0x20\n      add\n      swap2\n      jump(tag_52)\n    tag_53:\n      dup3\n      add\n      swap2\n      swap1\n      0x00\n      mstore\n      keccak256(0x00, 0x20)\n      swap1\n    tag_54:\n      dup2\n      sload\n      dup2\n      mstore\n      swap1\n      0x01\n      add\n      swap1\n      0x20\n      add\n      dup1\n      dup4\n      gt\n      tag_54\n      jumpi\n      dup3\n      swap1\n      sub\n      0x1f\n      and\n      dup3\n      add\n      swap2\n    tag_52:\n      pop\n      pop\n      pop\n      pop\n      pop\n      swap1\n      dup1\n      0x01\n      add\n      dup1\n      sload\n      tag_55\n      swap1\n      tag_50\n      jump\t// in\n    tag_55:\n      dup1\n      0x1f\n      add\n      0x20\n      dup1\n      swap2\n      div\n      mul\n      0x20\n      add\n      mload(0x40)\n      swap1\n      dup2\n      add\n      0x40\n      mstore\n      dup1\n      swap3\n      swap2\n      swap1\n      dup2\n      dup2\n      mstore\n      0x20\n      add\n      dup3\n      dup1\n      sload\n      tag_56\n      swap1\n      tag_50\n      jump\t// in\n    tag_56:\n      dup1\n      iszero\n      tag_57\n      jumpi\n      dup1\n      0x1f\n      lt\n      tag_58\n      jumpi\n      0x0100\n      dup1\n      dup4\n      sload\n      div\n      mul\n      dup4\n      mstore\n      swap2\n      0x20\n      add\n      swap2\n      jump(tag_57)\n    tag_58:\n      dup3\n      add\n      swap2\n      swap1\n      0x00\n      mstore\n      keccak256(0x00, 0x20)\n      swap1\n    tag_59:\n      dup2\n      sload\n      dup2\n      mstore\n      swap1\n      0x01\n      add\n      swap1\n      0x20\n      add\n      dup1\n      dup4\n      gt\n      tag_59\n      jumpi\n      dup3\n      swap1\n      sub\n      0x1f\n      and\n      dup3\n      add\n      swap2\n    tag_57:\n      pop\n      pop\n      pop\n      pop\n      pop\n      swap1\n      dup1\n      0x02\n      add\n      sload\n      swap1\n      dup1\n      0x03\n      add\n      dup1\n      sload\n      tag_60\n      swap1\n      tag_50\n      jump\t// in\n    tag_60:\n      dup1\n      0x1f\n      add\n      0x20\n      dup1\n      swap2\n      div\n      mul\n      0x20\n      add\n      mload(0x40)\n      swap1\n      dup2\n      add\n      0x40\n      mstore\n      dup1\n      swap3\n      swap2\n      swap1\n      dup2\n      dup2\n      mstore\n      0x20\n      add\n      dup3\n      dup1\n      sload\n      tag_61\n      swap1\n      tag_50\n      jump\t// in\n    tag_61:\n      dup1\n      iszero\n      tag_62\n      jumpi\n      dup1\n      0x1f\n      lt\n      tag_63\n      jumpi\n      0x0100\n      dup1\n      dup4\n      sload\n      div\n      mul\n      dup4\n      mstore\n      swap2\n      0x20\n      add\n      swap2\n      jump(tag_62)\n    tag_63:\n      dup3\n      add\n      swap2\n      swap1\n      0x00\n      mstore\n      keccak256(0x00, 0x20)\n      swap1\n    tag_64:\n      dup2\n      sload\n      dup2\n      mstore\n      swap1\n      0x01\n      add\n      swap1\n      0x20\n      add\n      dup1\n      dup4\n      gt\n      tag_64\n      jumpi\n      dup3\n      swap1\n      sub\n      0x1f\n      and\n      dup3\n      add\n      swap2\n    tag_62:\n      pop\n      pop\n      pop\n      pop\n      pop\n      swap1\n      dup1\n      0x04\n      add\n      0x00\n      swap1\n      sload\n      swap1\n      0x0100\n      exp\n      swap1\n      div\n      0xff\n      and\n      swap1\n      pop\n      dup6\n      jump\t// out\n        /* \"EduPayChain.sol\":1088:1195  function rejectPayment(uint _id) public onlyAdmin {... */\n    tag_31:\n        /* \"EduPayChain.sol\":490:495  admin */\n      0x00\n      dup1\n      sload\n      swap1\n      0x0100\n      exp\n      swap1\n      div\n      0xffffffffffffffffffffffffffffffffffffffff\n      and\n        /* \"EduPayChain.sol\":476:495  msg.sender == admin */\n      0xffffffffffffffffffffffffffffffffffffffff\n      and\n        /* \"EduPayChain.sol\":476:486  msg.sender */\n      caller\n        /* \"EduPayChain.sol\":476:495  msg.sender == admin */\n      0xffffffffffffffffffffffffffffffffffffffff\n      and\n      eq\n        /* \"EduPayChain.sol\":468:510  require(msg.sender == admin, \"Admin only\") */\n      tag_66\n      jumpi\n      mload(0x40)\n      0x08c379a000000000000000000000000000000000000000000000000000000000\n      dup2\n      mstore\n      0x04\n      add\n      tag_67\n      swap1\n      tag_44\n      jump\t// in\n    tag_67:\n      mload(0x40)\n      dup1\n      swap2\n      sub\n      swap1\n      revert\n    tag_66:\n        /* \"EduPayChain.sol\":1172:1187  Status.Rejected */\n      0x02\n        /* \"EduPayChain.sol\":1149:1157  payments */\n      0x01\n        /* \"EduPayChain.sol\":1149:1162  payments[_id] */\n      0x00\n        /* \"EduPayChain.sol\":1158:1161  _id */\n      dup4\n        /* \"EduPayChain.sol\":1149:1162  payments[_id] */\n      dup2\n      mstore\n      0x20\n      add\n      swap1\n      dup2\n      mstore\n      0x20\n      add\n      0x00\n      keccak256\n        /* \"EduPayChain.sol\":1149:1169  payments[_id].status */\n      0x04\n      add\n      0x00\n        /* \"EduPayChain.sol\":1149:1187  payments[_id].status = Status.Rejected */\n      0x0100\n      exp\n      dup2\n      sload\n      dup2\n      0xff\n      mul\n      not\n      and\n      swap1\n      dup4\n      0x02\n      dup2\n      gt\n      iszero\n      tag_69\n      jumpi\n      tag_70\n      tag_48\n      jump\t// in\n    tag_70:\n    tag_69:\n      mul\n      or\n      swap1\n      sstore\n      pop\n        /* \"EduPayChain.sol\":1088:1195  function rejectPayment(uint _id) public onlyAdmin {... */\n      pop\n      jump\t// out\n        /* \"EduPayChain.sol\":597:965  function submitPayment(... */\n    tag_35:\n        /* \"EduPayChain.sol\":768:780  paymentCount */\n      0x02\n      0x00\n        /* \"EduPayChain.sol\":768:782  paymentCount++ */\n      dup2\n      sload\n      dup1\n      swap3\n      swap2\n      swap1\n      tag_72\n      swap1\n      tag_73\n      jump\t// in\n    tag_72:\n      swap2\n      swap1\n      pop\n      sstore\n      pop\n        /* \"EduPayChain.sol\":820:957  Payment(... */\n      mload(0x40)\n      dup1\n      0xa0\n      add\n      0x40\n      mstore\n      dup1\n        /* \"EduPayChain.sol\":842:846  _nim */\n      dup6\n        /* \"EduPayChain.sol\":820:957  Payment(... */\n      dup2\n      mstore\n      0x20\n      add\n        /* \"EduPayChain.sol\":861:870  _semester */\n      dup5\n        /* \"EduPayChain.sol\":820:957  Payment(... */\n      dup2\n      mstore\n      0x20\n      add\n        /* \"EduPayChain.sol\":885:892  _amount */\n      dup4\n        /* \"EduPayChain.sol\":820:957  Payment(... */\n      dup2\n      mstore\n      0x20\n      add\n        /* \"EduPayChain.sol\":907:917  _proofHash */\n      dup3\n        /* \"EduPayChain.sol\":820:957  Payment(... */\n      dup2\n      mstore\n      0x20\n      add\n        /* \"EduPayChain.sol\":932:946  Status.Pending */\n      0x00\n        /* \"EduPayChain.sol\":820:957  Payment(... */\n      0x02\n      dup2\n      gt\n      iszero\n      tag_74\n      jumpi\n      tag_75\n      tag_48\n      jump\t// in\n    tag_75:\n    tag_74:\n      dup2\n      mstore\n      pop\n        /* \"EduPayChain.sol\":795:803  payments */\n      0x01\n        /* \"EduPayChain.sol\":795:817  payments[paymentCount] */\n      0x00\n        /* \"EduPayChain.sol\":804:816  paymentCount */\n      sload(0x02)\n        /* \"EduPayChain.sol\":795:817  payments[paymentCount] */\n      dup2\n      mstore\n      0x20\n      add\n      swap1\n      dup2\n      mstore\n      0x20\n      add\n      0x00\n      keccak256\n        /* \"EduPayChain.sol\":795:957  payments[paymentCount] = Payment(... */\n      0x00\n      dup3\n      add\n      mload\n      dup2\n      0x00\n      add\n      swap1\n      dup2\n      tag_76\n      swap2\n      swap1\n      tag_77\n      jump\t// in\n    tag_76:\n      pop\n      0x20\n      dup3\n      add\n      mload\n      dup2\n      0x01\n      add\n      swap1\n      dup2\n      tag_78\n      swap2\n      swap1\n      tag_77\n      jump\t// in\n    tag_78:\n      pop\n      0x40\n      dup3\n      add\n      mload\n      dup2\n      0x02\n      add\n      sstore\n      0x60\n      dup3\n      add\n      mload\n      dup2\n      0x03\n      add\n      swap1\n      dup2\n      tag_79\n      swap2\n      swap1\n      tag_77\n      jump\t// in\n    tag_79:\n      pop\n      0x80\n      dup3\n      add\n      mload\n      dup2\n      0x04\n      add\n      exp(0x0100, 0x00)\n      dup2\n      sload\n      dup2\n      0xff\n      mul\n      not\n      and\n      swap1\n      dup4\n      0x02\n      dup2\n      gt\n      iszero\n      tag_80\n      jumpi\n      tag_81\n      tag_48\n      jump\t// in\n    tag_81:\n    tag_80:\n      mul\n      or\n      swap1\n      sstore\n      pop\n      swap1\n      pop\n      pop\n        /* \"EduPayChain.sol\":597:965  function submitPayment(... */\n      pop\n      pop\n      pop\n      pop\n      jump\t// out\n        /* \"EduPayChain.sol\":91:111  address public admin */\n    tag_37:\n      0x00\n      dup1\n      sload\n      swap1\n      0x0100\n      exp\n      swap1\n      div\n      0xffffffffffffffffffffffffffffffffffffffff\n      and\n      dup2\n      jump\t// out\n        /* \"#utility.yul\":7:84   */\n    tag_82:\n        /* \"#utility.yul\":44:51   */\n      0x00\n        /* \"#utility.yul\":73:78   */\n      dup2\n        /* \"#utility.yul\":62:78   */\n      swap1\n      pop\n        /* \"#utility.yul\":7:84   */\n      swap2\n      swap1\n      pop\n      jump\t// out\n        /* \"#utility.yul\":90:208   */\n    tag_83:\n        /* \"#utility.yul\":177:201   */\n      tag_132\n        /* \"#utility.yul\":195:200   */\n      dup2\n        /* \"#utility.yul\":177:201   */\n      tag_82\n      jump\t// in\n    tag_132:\n        /* \"#utility.yul\":172:175   */\n      dup3\n        /* \"#utility.yul\":165:202   */\n      mstore\n        /* \"#utility.yul\":90:208   */\n      pop\n      pop\n      jump\t// out\n        /* \"#utility.yul\":214:436   */\n    tag_14:\n        /* \"#utility.yul\":307:311   */\n      0x00\n        /* \"#utility.yul\":345:347   */\n      0x20\n        /* \"#utility.yul\":334:343   */\n      dup3\n        /* \"#utility.yul\":330:348   */\n      add\n        /* \"#utility.yul\":322:348   */\n      swap1\n      pop\n        /* \"#utility.yul\":358:429   */\n      tag_134\n        /* \"#utility.yul\":426:427   */\n      0x00\n        /* \"#utility.yul\":415:424   */\n      dup4\n        /* \"#utility.yul\":411:428   */\n      add\n        /* \"#utility.yul\":402:408   */\n      dup5\n        /* \"#utility.yul\":358:429   */\n      tag_83\n      jump\t// in\n    tag_134:\n        /* \"#utility.yul\":214:436   */\n      swap3\n      swap2\n      pop\n      pop\n      jump\t// out\n        /* \"#utility.yul\":442:517   */\n    tag_84:\n        /* \"#utility.yul\":475:481   */\n      0x00\n        /* \"#utility.yul\":508:510   */\n      0x40\n        /* \"#utility.yul\":502:511   */\n      mload\n        /* \"#utility.yul\":492:511   */\n      swap1\n      pop\n        /* \"#utility.yul\":442:517   */\n      swap1\n      jump\t// out\n        /* \"#utility.yul\":523:640   */\n    tag_85:\n        /* \"#utility.yul\":632:633   */\n      0x00\n        /* \"#utility.yul\":629:630   */\n      dup1\n        /* \"#utility.yul\":622:634   */\n      revert\n        /* \"#utility.yul\":646:763   */\n    tag_86:\n        /* \"#utility.yul\":755:756   */\n      0x00\n        /* \"#utility.yul\":752:753   */\n      dup1\n        /* \"#utility.yul\":745:757   */\n      revert\n        /* \"#utility.yul\":769:891   */\n    tag_87:\n        /* \"#utility.yul\":842:866   */\n      tag_139\n        /* \"#utility.yul\":860:865   */\n      dup2\n        /* \"#utility.yul\":842:866   */\n      tag_82\n      jump\t// in\n    tag_139:\n        /* \"#utility.yul\":835:840   */\n      dup2\n        /* \"#utility.yul\":832:867   */\n      eq\n        /* \"#utility.yul\":822:885   */\n      tag_140\n      jumpi\n        /* \"#utility.yul\":881:882   */\n      0x00\n        /* \"#utility.yul\":878:879   */\n      dup1\n        /* \"#utility.yul\":871:883   */\n      revert\n        /* \"#utility.yul\":822:885   */\n    tag_140:\n        /* \"#utility.yul\":769:891   */\n      pop\n      jump\t// out\n        /* \"#utility.yul\":897:1036   */\n    tag_88:\n        /* \"#utility.yul\":943:948   */\n      0x00\n        /* \"#utility.yul\":981:987   */\n      dup2\n        /* \"#utility.yul\":968:988   */\n      calldataload\n        /* \"#utility.yul\":959:988   */\n      swap1\n      pop\n        /* \"#utility.yul\":997:1030   */\n      tag_142\n        /* \"#utility.yul\":1024:1029   */\n      dup2\n        /* \"#utility.yul\":997:1030   */\n      tag_87\n      jump\t// in\n    tag_142:\n        /* \"#utility.yul\":897:1036   */\n      swap3\n      swap2\n      pop\n      pop\n      jump\t// out\n        /* \"#utility.yul\":1042:1371   */\n    tag_17:\n        /* \"#utility.yul\":1101:1107   */\n      0x00\n        /* \"#utility.yul\":1150:1152   */\n      0x20\n        /* \"#utility.yul\":1138:1147   */\n      dup3\n        /* \"#utility.yul\":1129:1136   */\n      dup5\n        /* \"#utility.yul\":1125:1148   */\n      sub\n        /* \"#utility.yul\":1121:1153   */\n      slt\n        /* \"#utility.yul\":1118:1237   */\n      iszero\n      tag_144\n      jumpi\n        /* \"#utility.yul\":1156:1235   */\n      tag_145\n      tag_85\n      jump\t// in\n    tag_145:\n        /* \"#utility.yul\":1118:1237   */\n    tag_144:\n        /* \"#utility.yul\":1276:1277   */\n      0x00\n        /* \"#utility.yul\":1301:1354   */\n      tag_146\n        /* \"#utility.yul\":1346:1353   */\n      dup5\n        /* \"#utility.yul\":1337:1343   */\n      dup3\n        /* \"#utility.yul\":1326:1335   */\n      dup6\n        /* \"#utility.yul\":1322:1344   */\n      add\n        /* \"#utility.yul\":1301:1354   */\n      tag_88\n      jump\t// in\n    tag_146:\n        /* \"#utility.yul\":1291:1354   */\n      swap2\n      pop\n        /* \"#utility.yul\":1247:1364   */\n      pop\n        /* \"#utility.yul\":1042:1371   */\n      swap3\n      swap2\n      pop\n      pop\n      jump\t// out\n        /* \"#utility.yul\":1377:1557   */\n    tag_48:\n        /* \"#utility.yul\":1425:1502   */\n      0x4e487b7100000000000000000000000000000000000000000000000000000000\n        /* \"#utility.yul\":1422:1423   */\n      0x00\n        /* \"#utility.yul\":1415:1503   */\n      mstore\n        /* \"#utility.yul\":1522:1526   */\n      0x21\n        /* \"#utility.yul\":1519:1520   */\n      0x04\n        /* \"#utility.yul\":1512:1527   */\n      mstore\n        /* \"#utility.yul\":1546:1550   */\n      0x24\n        /* \"#utility.yul\":1543:1544   */\n      0x00\n        /* \"#utility.yul\":1536:1551   */\n      revert\n        /* \"#utility.yul\":1563:1676   */\n    tag_89:\n        /* \"#utility.yul\":1644:1645   */\n      0x03\n        /* \"#utility.yul\":1637:1642   */\n      dup2\n        /* \"#utility.yul\":1634:1646   */\n      lt\n        /* \"#utility.yul\":1624:1670   */\n      tag_149\n      jumpi\n        /* \"#utility.yul\":1650:1668   */\n      tag_150\n      tag_48\n      jump\t// in\n    tag_150:\n        /* \"#utility.yul\":1624:1670   */\n    tag_149:\n        /* \"#utility.yul\":1563:1676   */\n      pop\n      jump\t// out\n        /* \"#utility.yul\":1682:1809   */\n    tag_90:\n        /* \"#utility.yul\":1727:1734   */\n      0x00\n        /* \"#utility.yul\":1756:1761   */\n      dup2\n        /* \"#utility.yul\":1745:1761   */\n      swap1\n      pop\n        /* \"#utility.yul\":1762:1803   */\n      tag_152\n        /* \"#utility.yul\":1797:1802   */\n      dup3\n        /* \"#utility.yul\":1762:1803   */\n      tag_89\n      jump\t// in\n    tag_152:\n        /* \"#utility.yul\":1682:1809   */\n      swap2\n      swap1\n      pop\n      jump\t// out\n        /* \"#utility.yul\":1815:1942   */\n    tag_91:\n        /* \"#utility.yul\":1871:1880   */\n      0x00\n        /* \"#utility.yul\":1904:1936   */\n      tag_154\n        /* \"#utility.yul\":1930:1935   */\n      dup3\n        /* \"#utility.yul\":1904:1936   */\n      tag_90\n      jump\t// in\n    tag_154:\n        /* \"#utility.yul\":1891:1936   */\n      swap1\n      pop\n        /* \"#utility.yul\":1815:1942   */\n      swap2\n      swap1\n      pop\n      jump\t// out\n        /* \"#utility.yul\":1948:2091   */\n    tag_92:\n        /* \"#utility.yul\":2041:2084   */\n      tag_156\n        /* \"#utility.yul\":2078:2083   */\n      dup2\n        /* \"#utility.yul\":2041:2084   */\n      tag_91\n      jump\t// in\n    tag_156:\n        /* \"#utility.yul\":2036:2039   */\n      dup3\n        /* \"#utility.yul\":2029:2085   */\n      mstore\n        /* \"#utility.yul\":1948:2091   */\n      pop\n      pop\n      jump\t// out\n        /* \"#utility.yul\":2097:2331   */\n    tag_20:\n        /* \"#utility.yul\":2196:2200   */\n      0x00\n        /* \"#utility.yul\":2234:2236   */\n      0x20\n        /* \"#utility.yul\":2223:2232   */\n      dup3\n        /* \"#utility.yul\":2219:2237   */\n      add\n        /* \"#utility.yul\":2211:2237   */\n      swap1\n      pop\n        /* \"#utility.yul\":2247:2324   */\n      tag_158\n        /* \"#utility.yul\":2321:2322   */\n      0x00\n        /* \"#utility.yul\":2310:2319   */\n      dup4\n        /* \"#utility.yul\":2306:2323   */\n      add\n        /* \"#utility.yul\":2297:2303   */\n      dup5\n        /* \"#utility.yul\":2247:2324   */\n      tag_92\n      jump\t// in\n    tag_158:\n        /* \"#utility.yul\":2097:2331   */\n      swap3\n      swap2\n      pop\n      pop\n      jump\t// out\n        /* \"#utility.yul\":2337:2436   */\n    tag_93:\n        /* \"#utility.yul\":2389:2395   */\n      0x00\n        /* \"#utility.yul\":2423:2428   */\n      dup2\n        /* \"#utility.yul\":2417:2429   */\n      mload\n        /* \"#utility.yul\":2407:2429   */\n      swap1\n      pop\n        /* \"#utility.yul\":2337:2436   */\n      swap2\n      swap1\n      pop\n      jump\t// out\n        /* \"#utility.yul\":2442:2611   */\n    tag_94:\n        /* \"#utility.yul\":2526:2537   */\n      0x00\n        /* \"#utility.yul\":2560:2566   */\n      dup3\n        /* \"#utility.yul\":2555:2558   */\n      dup3\n        /* \"#utility.yul\":2548:2567   */\n      mstore\n        /* \"#utility.yul\":2600:2604   */\n      0x20\n        /* \"#utility.yul\":2595:2598   */\n      dup3\n        /* \"#utility.yul\":2591:2605   */\n      add\n        /* \"#utility.yul\":2576:2605   */\n      swap1\n      pop\n        /* \"#utility.yul\":2442:2611   */\n      swap3\n      swap2\n      pop\n      pop\n      jump\t// out\n        /* \"#utility.yul\":2617:2863   */\n    tag_95:\n        /* \"#utility.yul\":2698:2699   */\n      0x00\n        /* \"#utility.yul\":2708:2821   */\n    tag_162:\n        /* \"#utility.yul\":2722:2728   */\n      dup4\n        /* \"#utility.yul\":2719:2720   */\n      dup2\n        /* \"#utility.yul\":2716:2729   */\n      lt\n        /* \"#utility.yul\":2708:2821   */\n      iszero\n      tag_164\n      jumpi\n        /* \"#utility.yul\":2807:2808   */\n      dup1\n        /* \"#utility.yul\":2802:2805   */\n      dup3\n        /* \"#utility.yul\":2798:2809   */\n      add\n        /* \"#utility.yul\":2792:2810   */\n      mload\n        /* \"#utility.yul\":2788:2789   */\n      dup2\n        /* \"#utility.yul\":2783:2786   */\n      dup5\n        /* \"#utility.yul\":2779:2790   */\n      add\n        /* \"#utility.yul\":2772:2811   */\n      mstore\n        /* \"#utility.yul\":2744:2746   */\n      0x20\n        /* \"#utility.yul\":2741:2742   */\n      dup2\n        /* \"#utility.yul\":2737:2747   */\n      add\n        /* \"#utility.yul\":2732:2747   */\n      swap1\n      pop\n        /* \"#utility.yul\":2708:2821   */\n      jump(tag_162)\n    tag_164:\n        /* \"#utility.yul\":2855:2856   */\n      0x00\n        /* \"#utility.yul\":2846:2852   */\n      dup5\n        /* \"#utility.yul\":2841:2844   */\n      dup5\n        /* \"#utility.yul\":2837:2853   */\n      add\n        /* \"#utility.yul\":2830:2857   */\n      mstore\n        /* \"#utility.yul\":2679:2863   */\n      pop\n        /* \"#utility.yul\":2617:2863   */\n      pop\n      pop\n      pop\n      jump\t// out\n        /* \"#utility.yul\":2869:2971   */\n    tag_96:\n        /* \"#utility.yul\":2910:2916   */\n      0x00\n        /* \"#utility.yul\":2961:2963   */\n      0x1f\n        /* \"#utility.yul\":2957:2964   */\n      not\n        /* \"#utility.yul\":2952:2954   */\n      0x1f\n        /* \"#utility.yul\":2945:2950   */\n      dup4\n        /* \"#utility.yul\":2941:2955   */\n      add\n        /* \"#utility.yul\":2937:2965   */\n      and\n        /* \"#utility.yul\":2927:2965   */\n      swap1\n      pop\n        /* \"#utility.yul\":2869:2971   */\n      swap2\n      swap1\n      pop\n      jump\t// out\n        /* \"#utility.yul\":2977:3354   */\n    tag_97:\n        /* \"#utility.yul\":3065:3068   */\n      0x00\n        /* \"#utility.yul\":3093:3132   */\n      tag_167\n        /* \"#utility.yul\":3126:3131   */\n      dup3\n        /* \"#utility.yul\":3093:3132   */\n      tag_93\n      jump\t// in\n    tag_167:\n        /* \"#utility.yul\":3148:3219   */\n      tag_168\n        /* \"#utility.yul\":3212:3218   */\n      dup2\n        /* \"#utility.yul\":3207:3210   */\n      dup6\n        /* \"#utility.yul\":3148:3219   */\n      tag_94\n      jump\t// in\n    tag_168:\n        /* \"#utility.yul\":3141:3219   */\n      swap4\n      pop\n        /* \"#utility.yul\":3228:3293   */\n      tag_169\n        /* \"#utility.yul\":3286:3292   */\n      dup2\n        /* \"#utility.yul\":3281:3284   */\n      dup6\n        /* \"#utility.yul\":3274:3278   */\n      0x20\n        /* \"#utility.yul\":3267:3272   */\n      dup7\n        /* \"#utility.yul\":3263:3279   */\n      add\n        /* \"#utility.yul\":3228:3293   */\n      tag_95\n      jump\t// in\n    tag_169:\n        /* \"#utility.yul\":3318:3347   */\n      tag_170\n        /* \"#utility.yul\":3340:3346   */\n      dup2\n        /* \"#utility.yul\":3318:3347   */\n      tag_96\n      jump\t// in\n    tag_170:\n        /* \"#utility.yul\":3313:3316   */\n      dup5\n        /* \"#utility.yul\":3309:3348   */\n      add\n        /* \"#utility.yul\":3302:3348   */\n      swap2\n      pop\n        /* \"#utility.yul\":3069:3354   */\n      pop\n        /* \"#utility.yul\":2977:3354   */\n      swap3\n      swap2\n      pop\n      pop\n      jump\t// out\n        /* \"#utility.yul\":3360:4309   */\n    tag_28:\n        /* \"#utility.yul\":3631:3635   */\n      0x00\n        /* \"#utility.yul\":3669:3672   */\n      0xa0\n        /* \"#utility.yul\":3658:3667   */\n      dup3\n        /* \"#utility.yul\":3654:3673   */\n      add\n        /* \"#utility.yul\":3646:3673   */\n      swap1\n      pop\n        /* \"#utility.yul\":3719:3728   */\n      dup2\n        /* \"#utility.yul\":3713:3717   */\n      dup2\n        /* \"#utility.yul\":3709:3729   */\n      sub\n        /* \"#utility.yul\":3705:3706   */\n      0x00\n        /* \"#utility.yul\":3694:3703   */\n      dup4\n        /* \"#utility.yul\":3690:3707   */\n      add\n        /* \"#utility.yul\":3683:3730   */\n      mstore\n        /* \"#utility.yul\":3747:3825   */\n      tag_172\n        /* \"#utility.yul\":3820:3824   */\n      dup2\n        /* \"#utility.yul\":3811:3817   */\n      dup9\n        /* \"#utility.yul\":3747:3825   */\n      tag_97\n      jump\t// in\n    tag_172:\n        /* \"#utility.yul\":3739:3825   */\n      swap1\n      pop\n        /* \"#utility.yul\":3872:3881   */\n      dup2\n        /* \"#utility.yul\":3866:3870   */\n      dup2\n        /* \"#utility.yul\":3862:3882   */\n      sub\n        /* \"#utility.yul\":3857:3859   */\n      0x20\n        /* \"#utility.yul\":3846:3855   */\n      dup4\n        /* \"#utility.yul\":3842:3860   */\n      add\n        /* \"#utility.yul\":3835:3883   */\n      mstore\n        /* \"#utility.yul\":3900:3978   */\n      tag_173\n        /* \"#utility.yul\":3973:3977   */\n      dup2\n        /* \"#utility.yul\":3964:3970   */\n      dup8\n        /* \"#utility.yul\":3900:3978   */\n      tag_97\n      jump\t// in\n    tag_173:\n        /* \"#utility.yul\":3892:3978   */\n      swap1\n      pop\n        /* \"#utility.yul\":3988:4060   */\n      tag_174\n        /* \"#utility.yul\":4056:4058   */\n      0x40\n        /* \"#utility.yul\":4045:4054   */\n      dup4\n        /* \"#utility.yul\":4041:4059   */\n      add\n        /* \"#utility.yul\":4032:4038   */\n      dup7\n        /* \"#utility.yul\":3988:4060   */\n      tag_83\n      jump\t// in\n    tag_174:\n        /* \"#utility.yul\":4107:4116   */\n      dup2\n        /* \"#utility.yul\":4101:4105   */\n      dup2\n        /* \"#utility.yul\":4097:4117   */\n      sub\n        /* \"#utility.yul\":4092:4094   */\n      0x60\n        /* \"#utility.yul\":4081:4090   */\n      dup4\n        /* \"#utility.yul\":4077:4095   */\n      add\n        /* \"#utility.yul\":4070:4118   */\n      mstore\n        /* \"#utility.yul\":4135:4213   */\n      tag_175\n        /* \"#utility.yul\":4208:4212   */\n      dup2\n        /* \"#utility.yul\":4199:4205   */\n      dup6\n        /* \"#utility.yul\":4135:4213   */\n      tag_97\n      jump\t// in\n    tag_175:\n        /* \"#utility.yul\":4127:4213   */\n      swap1\n      pop\n        /* \"#utility.yul\":4223:4302   */\n      tag_176\n        /* \"#utility.yul\":4297:4300   */\n      0x80\n        /* \"#utility.yul\":4286:4295   */\n      dup4\n        /* \"#utility.yul\":4282:4301   */\n      add\n        /* \"#utility.yul\":4273:4279   */\n      dup5\n        /* \"#utility.yul\":4223:4302   */\n      tag_92\n      jump\t// in\n    tag_176:\n        /* \"#utility.yul\":3360:4309   */\n      swap7\n      swap6\n      pop\n      pop\n      pop\n      pop\n      pop\n      pop\n      jump\t// out\n        /* \"#utility.yul\":4315:4432   */\n    tag_98:\n        /* \"#utility.yul\":4424:4425   */\n      0x00\n        /* \"#utility.yul\":4421:4422   */\n      dup1\n        /* \"#utility.yul\":4414:4426   */\n      revert\n        /* \"#utility.yul\":4438:4555   */\n    tag_99:\n        /* \"#utility.yul\":4547:4548   */\n      0x00\n        /* \"#utility.yul\":4544:4545   */\n      dup1\n        /* \"#utility.yul\":4537:4549   */\n      revert\n        /* \"#utility.yul\":4561:4741   */\n    tag_100:\n        /* \"#utility.yul\":4609:4686   */\n      0x4e487b7100000000000000000000000000000000000000000000000000000000\n        /* \"#utility.yul\":4606:4607   */\n      0x00\n        /* \"#utility.yul\":4599:4687   */\n      mstore\n        /* \"#utility.yul\":4706:4710   */\n      0x41\n        /* \"#utility.yul\":4703:4704   */\n      0x04\n        /* \"#utility.yul\":4696:4711   */\n      mstore\n        /* \"#utility.yul\":4730:4734   */\n      0x24\n        /* \"#utility.yul\":4727:4728   */\n      0x00\n        /* \"#utility.yul\":4720:4735   */\n      revert\n        /* \"#utility.yul\":4747:5028   */\n    tag_101:\n        /* \"#utility.yul\":4830:4857   */\n      tag_181\n        /* \"#utility.yul\":4852:4856   */\n      dup3\n        /* \"#utility.yul\":4830:4857   */\n      tag_96\n      jump\t// in\n    tag_181:\n        /* \"#utility.yul\":4822:4828   */\n      dup2\n        /* \"#utility.yul\":4818:4858   */\n      add\n        /* \"#utility.yul\":4960:4966   */\n      dup2\n        /* \"#utility.yul\":4948:4958   */\n      dup2\n        /* \"#utility.yul\":4945:4967   */\n      lt\n        /* \"#utility.yul\":4924:4942   */\n      0xffffffffffffffff\n        /* \"#utility.yul\":4912:4922   */\n      dup3\n        /* \"#utility.yul\":4909:4943   */\n      gt\n        /* \"#utility.yul\":4906:4968   */\n      or\n        /* \"#utility.yul\":4903:4991   */\n      iszero\n      tag_182\n      jumpi\n        /* \"#utility.yul\":4971:4989   */\n      tag_183\n      tag_100\n      jump\t// in\n    tag_183:\n        /* \"#utility.yul\":4903:4991   */\n    tag_182:\n        /* \"#utility.yul\":5011:5021   */\n      dup1\n        /* \"#utility.yul\":5007:5009   */\n      0x40\n        /* \"#utility.yul\":5000:5022   */\n      mstore\n        /* \"#utility.yul\":4790:5028   */\n      pop\n        /* \"#utility.yul\":4747:5028   */\n      pop\n      pop\n      jump\t// out\n        /* \"#utility.yul\":5034:5163   */\n    tag_102:\n        /* \"#utility.yul\":5068:5074   */\n      0x00\n        /* \"#utility.yul\":5095:5115   */\n      tag_185\n      tag_84\n      jump\t// in\n    tag_185:\n        /* \"#utility.yul\":5085:5115   */\n      swap1\n      pop\n        /* \"#utility.yul\":5124:5157   */\n      tag_186\n        /* \"#utility.yul\":5152:5156   */\n      dup3\n        /* \"#utility.yul\":5144:5150   */\n      dup3\n        /* \"#utility.yul\":5124:5157   */\n      tag_101\n      jump\t// in\n    tag_186:\n        /* \"#utility.yul\":5034:5163   */\n      swap2\n      swap1\n      pop\n      jump\t// out\n        /* \"#utility.yul\":5169:5477   */\n    tag_103:\n        /* \"#utility.yul\":5231:5235   */\n      0x00\n        /* \"#utility.yul\":5321:5339   */\n      0xffffffffffffffff\n        /* \"#utility.yul\":5313:5319   */\n      dup3\n        /* \"#utility.yul\":5310:5340   */\n      gt\n        /* \"#utility.yul\":5307:5363   */\n      iszero\n      tag_188\n      jumpi\n        /* \"#utility.yul\":5343:5361   */\n      tag_189\n      tag_100\n      jump\t// in\n    tag_189:\n        /* \"#utility.yul\":5307:5363   */\n    tag_188:\n        /* \"#utility.yul\":5381:5410   */\n      tag_190\n        /* \"#utility.yul\":5403:5409   */\n      dup3\n        /* \"#utility.yul\":5381:5410   */\n      tag_96\n      jump\t// in\n    tag_190:\n        /* \"#utility.yul\":5373:5410   */\n      swap1\n      pop\n        /* \"#utility.yul\":5465:5469   */\n      0x20\n        /* \"#utility.yul\":5459:5463   */\n      dup2\n        /* \"#utility.yul\":5455:5470   */\n      add\n        /* \"#utility.yul\":5447:5470   */\n      swap1\n      pop\n        /* \"#utility.yul\":5169:5477   */\n      swap2\n      swap1\n      pop\n      jump\t// out\n        /* \"#utility.yul\":5483:5629   */\n    tag_104:\n        /* \"#utility.yul\":5580:5586   */\n      dup3\n        /* \"#utility.yul\":5575:5578   */\n      dup2\n        /* \"#utility.yul\":5570:5573   */\n      dup4\n        /* \"#utility.yul\":5557:5587   */\n      calldatacopy\n        /* \"#utility.yul\":5621:5622   */\n      0x00\n        /* \"#utility.yul\":5612:5618   */\n      dup4\n        /* \"#utility.yul\":5607:5610   */\n      dup4\n        /* \"#utility.yul\":5603:5619   */\n      add\n        /* \"#utility.yul\":5596:5623   */\n      mstore\n        /* \"#utility.yul\":5483:5629   */\n      pop\n      pop\n      pop\n      jump\t// out\n        /* \"#utility.yul\":5635:6060   */\n    tag_105:\n        /* \"#utility.yul\":5713:5718   */\n      0x00\n        /* \"#utility.yul\":5738:5804   */\n      tag_193\n        /* \"#utility.yul\":5754:5803   */\n      tag_194\n        /* \"#utility.yul\":5796:5802   */\n      dup5\n        /* \"#utility.yul\":5754:5803   */\n      tag_103\n      jump\t// in\n    tag_194:\n        /* \"#utility.yul\":5738:5804   */\n      tag_102\n      jump\t// in\n    tag_193:\n        /* \"#utility.yul\":5729:5804   */\n      swap1\n      pop\n        /* \"#utility.yul\":5827:5833   */\n      dup3\n        /* \"#utility.yul\":5820:5825   */\n      dup2\n        /* \"#utility.yul\":5813:5834   */\n      mstore\n        /* \"#utility.yul\":5865:5869   */\n      0x20\n        /* \"#utility.yul\":5858:5863   */\n      dup2\n        /* \"#utility.yul\":5854:5870   */\n      add\n        /* \"#utility.yul\":5903:5906   */\n      dup5\n        /* \"#utility.yul\":5894:5900   */\n      dup5\n        /* \"#utility.yul\":5889:5892   */\n      dup5\n        /* \"#utility.yul\":5885:5901   */\n      add\n        /* \"#utility.yul\":5882:5907   */\n      gt\n        /* \"#utility.yul\":5879:5991   */\n      iszero\n      tag_195\n      jumpi\n        /* \"#utility.yul\":5910:5989   */\n      tag_196\n      tag_99\n      jump\t// in\n    tag_196:\n        /* \"#utility.yul\":5879:5991   */\n    tag_195:\n        /* \"#utility.yul\":6000:6054   */\n      tag_197\n        /* \"#utility.yul\":6047:6053   */\n      dup5\n        /* \"#utility.yul\":6042:6045   */\n      dup3\n        /* \"#utility.yul\":6037:6040   */\n      dup6\n        /* \"#utility.yul\":6000:6054   */\n      tag_104\n      jump\t// in\n    tag_197:\n        /* \"#utility.yul\":5719:6060   */\n      pop\n        /* \"#utility.yul\":5635:6060   */\n      swap4\n      swap3\n      pop\n      pop\n      pop\n      jump\t// out\n        /* \"#utility.yul\":6080:6420   */\n    tag_106:\n        /* \"#utility.yul\":6136:6141   */\n      0x00\n        /* \"#utility.yul\":6185:6188   */\n      dup3\n        /* \"#utility.yul\":6178:6182   */\n      0x1f\n        /* \"#utility.yul\":6170:6176   */\n      dup4\n        /* \"#utility.yul\":6166:6183   */\n      add\n        /* \"#utility.yul\":6162:6189   */\n      slt\n        /* \"#utility.yul\":6152:6274   */\n      tag_199\n      jumpi\n        /* \"#utility.yul\":6193:6272   */\n      tag_200\n      tag_98\n      jump\t// in\n    tag_200:\n        /* \"#utility.yul\":6152:6274   */\n    tag_199:\n        /* \"#utility.yul\":6310:6316   */\n      dup2\n        /* \"#utility.yul\":6297:6317   */\n      calldataload\n        /* \"#utility.yul\":6335:6414   */\n      tag_201\n        /* \"#utility.yul\":6410:6413   */\n      dup5\n        /* \"#utility.yul\":6402:6408   */\n      dup3\n        /* \"#utility.yul\":6395:6399   */\n      0x20\n        /* \"#utility.yul\":6387:6393   */\n      dup7\n        /* \"#utility.yul\":6383:6400   */\n      add\n        /* \"#utility.yul\":6335:6414   */\n      tag_105\n      jump\t// in\n    tag_201:\n        /* \"#utility.yul\":6326:6414   */\n      swap2\n      pop\n        /* \"#utility.yul\":6142:6420   */\n      pop\n        /* \"#utility.yul\":6080:6420   */\n      swap3\n      swap2\n      pop\n      pop\n      jump\t// out\n        /* \"#utility.yul\":6426:7731   */\n    tag_34:\n        /* \"#utility.yul\":6542:6548   */\n      0x00\n        /* \"#utility.yul\":6550:6556   */\n      dup1\n        /* \"#utility.yul\":6558:6564   */\n      0x00\n        /* \"#utility.yul\":6566:6572   */\n      dup1\n        /* \"#utility.yul\":6615:6618   */\n      0x80\n        /* \"#utility.yul\":6603:6612   */\n      dup6\n        /* \"#utility.yul\":6594:6601   */\n      dup8\n        /* \"#utility.yul\":6590:6613   */\n      sub\n        /* \"#utility.yul\":6586:6619   */\n      slt\n        /* \"#utility.yul\":6583:6703   */\n      iszero\n      tag_203\n      jumpi\n        /* \"#utility.yul\":6622:6701   */\n      tag_204\n      tag_85\n      jump\t// in\n    tag_204:\n        /* \"#utility.yul\":6583:6703   */\n    tag_203:\n        /* \"#utility.yul\":6770:6771   */\n      0x00\n        /* \"#utility.yul\":6759:6768   */\n      dup6\n        /* \"#utility.yul\":6755:6772   */\n      add\n        /* \"#utility.yul\":6742:6773   */\n      calldataload\n        /* \"#utility.yul\":6800:6818   */\n      0xffffffffffffffff\n        /* \"#utility.yul\":6792:6798   */\n      dup2\n        /* \"#utility.yul\":6789:6819   */\n      gt\n        /* \"#utility.yul\":6786:6903   */\n      iszero\n      tag_205\n      jumpi\n        /* \"#utility.yul\":6822:6901   */\n      tag_206\n      tag_86\n      jump\t// in\n    tag_206:\n        /* \"#utility.yul\":6786:6903   */\n    tag_205:\n        /* \"#utility.yul\":6927:6990   */\n      tag_207\n        /* \"#utility.yul\":6982:6989   */\n      dup8\n        /* \"#utility.yul\":6973:6979   */\n      dup3\n        /* \"#utility.yul\":6962:6971   */\n      dup9\n        /* \"#utility.yul\":6958:6980   */\n      add\n        /* \"#utility.yul\":6927:6990   */\n      tag_106\n      jump\t// in\n    tag_207:\n        /* \"#utility.yul\":6917:6990   */\n      swap5\n      pop\n        /* \"#utility.yul\":6713:7000   */\n      pop\n        /* \"#utility.yul\":7067:7069   */\n      0x20\n        /* \"#utility.yul\":7056:7065   */\n      dup6\n        /* \"#utility.yul\":7052:7070   */\n      add\n        /* \"#utility.yul\":7039:7071   */\n      calldataload\n        /* \"#utility.yul\":7098:7116   */\n      0xffffffffffffffff\n        /* \"#utility.yul\":7090:7096   */\n      dup2\n        /* \"#utility.yul\":7087:7117   */\n      gt\n        /* \"#utility.yul\":7084:7201   */\n      iszero\n      tag_208\n      jumpi\n        /* \"#utility.yul\":7120:7199   */\n      tag_209\n      tag_86\n      jump\t// in\n    tag_209:\n        /* \"#utility.yul\":7084:7201   */\n    tag_208:\n        /* \"#utility.yul\":7225:7288   */\n      tag_210\n        /* \"#utility.yul\":7280:7287   */\n      dup8\n        /* \"#utility.yul\":7271:7277   */\n      dup3\n        /* \"#utility.yul\":7260:7269   */\n      dup9\n        /* \"#utility.yul\":7256:7278   */\n      add\n        /* \"#utility.yul\":7225:7288   */\n      tag_106\n      jump\t// in\n    tag_210:\n        /* \"#utility.yul\":7215:7288   */\n      swap4\n      pop\n        /* \"#utility.yul\":7010:7298   */\n      pop\n        /* \"#utility.yul\":7337:7339   */\n      0x40\n        /* \"#utility.yul\":7363:7416   */\n      tag_211\n        /* \"#utility.yul\":7408:7415   */\n      dup8\n        /* \"#utility.yul\":7399:7405   */\n      dup3\n        /* \"#utility.yul\":7388:7397   */\n      dup9\n        /* \"#utility.yul\":7384:7406   */\n      add\n        /* \"#utility.yul\":7363:7416   */\n      tag_88\n      jump\t// in\n    tag_211:\n        /* \"#utility.yul\":7353:7416   */\n      swap3\n      pop\n        /* \"#utility.yul\":7308:7426   */\n      pop\n        /* \"#utility.yul\":7493:7495   */\n      0x60\n        /* \"#utility.yul\":7482:7491   */\n      dup6\n        /* \"#utility.yul\":7478:7496   */\n      add\n        /* \"#utility.yul\":7465:7497   */\n      calldataload\n        /* \"#utility.yul\":7524:7542   */\n      0xffffffffffffffff\n        /* \"#utility.yul\":7516:7522   */\n      dup2\n        /* \"#utility.yul\":7513:7543   */\n      gt\n        /* \"#utility.yul\":7510:7627   */\n      iszero\n      tag_212\n      jumpi\n        /* \"#utility.yul\":7546:7625   */\n      tag_213\n      tag_86\n      jump\t// in\n    tag_213:\n        /* \"#utility.yul\":7510:7627   */\n    tag_212:\n        /* \"#utility.yul\":7651:7714   */\n      tag_214\n        /* \"#utility.yul\":7706:7713   */\n      dup8\n        /* \"#utility.yul\":7697:7703   */\n      dup3\n        /* \"#utility.yul\":7686:7695   */\n      dup9\n        /* \"#utility.yul\":7682:7704   */\n      add\n        /* \"#utility.yul\":7651:7714   */\n      tag_106\n      jump\t// in\n    tag_214:\n        /* \"#utility.yul\":7641:7714   */\n      swap2\n      pop\n        /* \"#utility.yul\":7436:7724   */\n      pop\n        /* \"#utility.yul\":6426:7731   */\n      swap3\n      swap6\n      swap2\n      swap5\n      pop\n      swap3\n      pop\n      jump\t// out\n        /* \"#utility.yul\":7737:7863   */\n    tag_107:\n        /* \"#utility.yul\":7774:7781   */\n      0x00\n        /* \"#utility.yul\":7814:7856   */\n      0xffffffffffffffffffffffffffffffffffffffff\n        /* \"#utility.yul\":7807:7812   */\n      dup3\n        /* \"#utility.yul\":7803:7857   */\n      and\n        /* \"#utility.yul\":7792:7857   */\n      swap1\n      pop\n        /* \"#utility.yul\":7737:7863   */\n      swap2\n      swap1\n      pop\n      jump\t// out\n        /* \"#utility.yul\":7869:7965   */\n    tag_108:\n        /* \"#utility.yul\":7906:7913   */\n      0x00\n        /* \"#utility.yul\":7935:7959   */\n      tag_217\n        /* \"#utility.yul\":7953:7958   */\n      dup3\n        /* \"#utility.yul\":7935:7959   */\n      tag_107\n      jump\t// in\n    tag_217:\n        /* \"#utility.yul\":7924:7959   */\n      swap1\n      pop\n        /* \"#utility.yul\":7869:7965   */\n      swap2\n      swap1\n      pop\n      jump\t// out\n        /* \"#utility.yul\":7971:8089   */\n    tag_109:\n        /* \"#utility.yul\":8058:8082   */\n      tag_219\n        /* \"#utility.yul\":8076:8081   */\n      dup2\n        /* \"#utility.yul\":8058:8082   */\n      tag_108\n      jump\t// in\n    tag_219:\n        /* \"#utility.yul\":8053:8056   */\n      dup3\n        /* \"#utility.yul\":8046:8083   */\n      mstore\n        /* \"#utility.yul\":7971:8089   */\n      pop\n      pop\n      jump\t// out\n        /* \"#utility.yul\":8095:8317   */\n    tag_39:\n        /* \"#utility.yul\":8188:8192   */\n      0x00\n        /* \"#utility.yul\":8226:8228   */\n      0x20\n        /* \"#utility.yul\":8215:8224   */\n      dup3\n        /* \"#utility.yul\":8211:8229   */\n      add\n        /* \"#utility.yul\":8203:8229   */\n      swap1\n      pop\n        /* \"#utility.yul\":8239:8310   */\n      tag_221\n        /* \"#utility.yul\":8307:8308   */\n      0x00\n        /* \"#utility.yul\":8296:8305   */\n      dup4\n        /* \"#utility.yul\":8292:8309   */\n      add\n        /* \"#utility.yul\":8283:8289   */\n      dup5\n        /* \"#utility.yul\":8239:8310   */\n      tag_109\n      jump\t// in\n    tag_221:\n        /* \"#utility.yul\":8095:8317   */\n      swap3\n      swap2\n      pop\n      pop\n      jump\t// out\n        /* \"#utility.yul\":8323:8483   */\n    tag_110:\n        /* \"#utility.yul\":8463:8475   */\n      0x41646d696e206f6e6c7900000000000000000000000000000000000000000000\n        /* \"#utility.yul\":8459:8460   */\n      0x00\n        /* \"#utility.yul\":8451:8457   */\n      dup3\n        /* \"#utility.yul\":8447:8461   */\n      add\n        /* \"#utility.yul\":8440:8476   */\n      mstore\n        /* \"#utility.yul\":8323:8483   */\n      pop\n      jump\t// out\n        /* \"#utility.yul\":8489:8855   */\n    tag_111:\n        /* \"#utility.yul\":8631:8634   */\n      0x00\n        /* \"#utility.yul\":8652:8719   */\n      tag_224\n        /* \"#utility.yul\":8716:8718   */\n      0x0a\n        /* \"#utility.yul\":8711:8714   */\n      dup4\n        /* \"#utility.yul\":8652:8719   */\n      tag_94\n      jump\t// in\n    tag_224:\n        /* \"#utility.yul\":8645:8719   */\n      swap2\n      pop\n        /* \"#utility.yul\":8728:8821   */\n      tag_225\n        /* \"#utility.yul\":8817:8820   */\n      dup3\n        /* \"#utility.yul\":8728:8821   */\n      tag_110\n      jump\t// in\n    tag_225:\n        /* \"#utility.yul\":8846:8848   */\n      0x20\n        /* \"#utility.yul\":8841:8844   */\n      dup3\n        /* \"#utility.yul\":8837:8849   */\n      add\n        /* \"#utility.yul\":8830:8849   */\n      swap1\n      pop\n        /* \"#utility.yul\":8489:8855   */\n      swap2\n      swap1\n      pop\n      jump\t// out\n        /* \"#utility.yul\":8861:9280   */\n    tag_44:\n        /* \"#utility.yul\":9027:9031   */\n      0x00\n        /* \"#utility.yul\":9065:9067   */\n      0x20\n        /* \"#utility.yul\":9054:9063   */\n      dup3\n        /* \"#utility.yul\":9050:9068   */\n      add\n        /* \"#utility.yul\":9042:9068   */\n      swap1\n      pop\n        /* \"#utility.yul\":9114:9123   */\n      dup2\n        /* \"#utility.yul\":9108:9112   */\n      dup2\n        /* \"#utility.yul\":9104:9124   */\n      sub\n        /* \"#utility.yul\":9100:9101   */\n      0x00\n        /* \"#utility.yul\":9089:9098   */\n      dup4\n        /* \"#utility.yul\":9085:9102   */\n      add\n        /* \"#utility.yul\":9078:9125   */\n      mstore\n        /* \"#utility.yul\":9142:9273   */\n      tag_227\n        /* \"#utility.yul\":9268:9272   */\n      dup2\n        /* \"#utility.yul\":9142:9273   */\n      tag_111\n      jump\t// in\n    tag_227:\n        /* \"#utility.yul\":9134:9273   */\n      swap1\n      pop\n        /* \"#utility.yul\":8861:9280   */\n      swap2\n      swap1\n      pop\n      jump\t// out\n        /* \"#utility.yul\":9286:9466   */\n    tag_112:\n        /* \"#utility.yul\":9334:9411   */\n      0x4e487b7100000000000000000000000000000000000000000000000000000000\n        /* \"#utility.yul\":9331:9332   */\n      0x00\n        /* \"#utility.yul\":9324:9412   */\n      mstore\n        /* \"#utility.yul\":9431:9435   */\n      0x22\n        /* \"#utility.yul\":9428:9429   */\n      0x04\n        /* \"#utility.yul\":9421:9436   */\n      mstore\n        /* \"#utility.yul\":9455:9459   */\n      0x24\n        /* \"#utility.yul\":9452:9453   */\n      0x00\n        /* \"#utility.yul\":9445:9460   */\n      revert\n        /* \"#utility.yul\":9472:9792   */\n    tag_50:\n        /* \"#utility.yul\":9516:9522   */\n      0x00\n        /* \"#utility.yul\":9553:9554   */\n      0x02\n        /* \"#utility.yul\":9547:9551   */\n      dup3\n        /* \"#utility.yul\":9543:9555   */\n      div\n        /* \"#utility.yul\":9533:9555   */\n      swap1\n      pop\n        /* \"#utility.yul\":9600:9601   */\n      0x01\n        /* \"#utility.yul\":9594:9598   */\n      dup3\n        /* \"#utility.yul\":9590:9602   */\n      and\n        /* \"#utility.yul\":9621:9639   */\n      dup1\n        /* \"#utility.yul\":9611:9692   */\n      tag_230\n      jumpi\n        /* \"#utility.yul\":9677:9681   */\n      0x7f\n        /* \"#utility.yul\":9669:9675   */\n      dup3\n        /* \"#utility.yul\":9665:9682   */\n      and\n        /* \"#utility.yul\":9655:9682   */\n      swap2\n      pop\n        /* \"#utility.yul\":9611:9692   */\n    tag_230:\n        /* \"#utility.yul\":9739:9741   */\n      0x20\n        /* \"#utility.yul\":9731:9737   */\n      dup3\n        /* \"#utility.yul\":9728:9742   */\n      lt\n        /* \"#utility.yul\":9708:9726   */\n      dup2\n        /* \"#utility.yul\":9705:9743   */\n      sub\n        /* \"#utility.yul\":9702:9786   */\n      tag_231\n      jumpi\n        /* \"#utility.yul\":9758:9776   */\n      tag_232\n      tag_112\n      jump\t// in\n    tag_232:\n        /* \"#utility.yul\":9702:9786   */\n    tag_231:\n        /* \"#utility.yul\":9523:9792   */\n      pop\n        /* \"#utility.yul\":9472:9792   */\n      swap2\n      swap1\n      pop\n      jump\t// out\n        /* \"#utility.yul\":9798:9978   */\n    tag_113:\n        /* \"#utility.yul\":9846:9923   */\n      0x4e487b7100000000000000000000000000000000000000000000000000000000\n        /* \"#utility.yul\":9843:9844   */\n      0x00\n        /* \"#utility.yul\":9836:9924   */\n      mstore\n        /* \"#utility.yul\":9943:9947   */\n      0x11\n        /* \"#utility.yul\":9940:9941   */\n      0x04\n        /* \"#utility.yul\":9933:9948   */\n      mstore\n        /* \"#utility.yul\":9967:9971   */\n      0x24\n        /* \"#utility.yul\":9964:9965   */\n      0x00\n        /* \"#utility.yul\":9957:9972   */\n      revert\n        /* \"#utility.yul\":9984:10217   */\n    tag_73:\n        /* \"#utility.yul\":10023:10026   */\n      0x00\n        /* \"#utility.yul\":10046:10070   */\n      tag_235\n        /* \"#utility.yul\":10064:10069   */\n      dup3\n        /* \"#utility.yul\":10046:10070   */\n      tag_82\n      jump\t// in\n    tag_235:\n        /* \"#utility.yul\":10037:10070   */\n      swap2\n      pop\n        /* \"#utility.yul\":10092:10158   */\n      0xffffffffffffffffffffffffffffffffffffffffffffffffffffffffffffffff\n        /* \"#utility.yul\":10085:10090   */\n      dup3\n        /* \"#utility.yul\":10082:10159   */\n      sub\n        /* \"#utility.yul\":10079:10182   */\n      tag_236\n      jumpi\n        /* \"#utility.yul\":10162:10180   */\n      tag_237\n      tag_113\n      jump\t// in\n    tag_237:\n        /* \"#utility.yul\":10079:10182   */\n    tag_236:\n        /* \"#utility.yul\":10209:10210   */\n      0x01\n        /* \"#utility.yul\":10202:10207   */\n      dup3\n        /* \"#utility.yul\":10198:10211   */\n      add\n        /* \"#utility.yul\":10191:10211   */\n      swap1\n      pop\n        /* \"#utility.yul\":9984:10217   */\n      swap2\n      swap1\n      pop\n      jump\t// out\n        /* \"#utility.yul\":10223:10364   */\n    tag_114:\n        /* \"#utility.yul\":10272:10276   */\n      0x00\n        /* \"#utility.yul\":10295:10298   */\n      dup2\n        /* \"#utility.yul\":10287:10298   */\n      swap1\n      pop\n        /* \"#utility.yul\":10318:10321   */\n      dup2\n        /* \"#utility.yul\":10315:10316   */\n      0x00\n        /* \"#utility.yul\":10308:10322   */\n      mstore\n        /* \"#utility.yul\":10352:10356   */\n      0x20\n        /* \"#utility.yul\":10349:10350   */\n      0x00\n        /* \"#utility.yul\":10339:10357   */\n      keccak256\n        /* \"#utility.yul\":10331:10357   */\n      swap1\n      pop\n        /* \"#utility.yul\":10223:10364   */\n      swap2\n      swap1\n      pop\n      jump\t// out\n        /* \"#utility.yul\":10370:10463   */\n    tag_115:\n        /* \"#utility.yul\":10407:10413   */\n      0x00\n        /* \"#utility.yul\":10454:10456   */\n      0x20\n        /* \"#utility.yul\":10449:10451   */\n      0x1f\n        /* \"#utility.yul\":10442:10447   */\n      dup4\n        /* \"#utility.yul\":10438:10452   */\n      add\n        /* \"#utility.yul\":10434:10457   */\n      div\n        /* \"#utility.yul\":10424:10457   */\n      swap1\n      pop\n        /* \"#utility.yul\":10370:10463   */\n      swap2\n      swap1\n      pop\n      jump\t// out\n        /* \"#utility.yul\":10469:10576   */\n    tag_116:\n        /* \"#utility.yul\":10513:10521   */\n      0x00\n        /* \"#utility.yul\":10563:10568   */\n      dup3\n        /* \"#utility.yul\":10557:10561   */\n      dup3\n        /* \"#utility.yul\":10553:10569   */\n      shl\n        /* \"#utility.yul\":10532:10569   */\n      swap1\n      pop\n        /* \"#utility.yul\":10469:10576   */\n      swap3\n      swap2\n      pop\n      pop\n      jump\t// out\n        /* \"#utility.yul\":10582:10975   */\n    tag_117:\n        /* \"#utility.yul\":10651:10657   */\n      0x00\n        /* \"#utility.yul\":10701:10702   */\n      0x08\n        /* \"#utility.yul\":10689:10699   */\n      dup4\n        /* \"#utility.yul\":10685:10703   */\n      mul\n        /* \"#utility.yul\":10724:10821   */\n      tag_242\n        /* \"#utility.yul\":10754:10820   */\n      0xffffffffffffffffffffffffffffffffffffffffffffffffffffffffffffffff\n        /* \"#utility.yul\":10743:10752   */\n      dup3\n        /* \"#utility.yul\":10724:10821   */\n      tag_116\n      jump\t// in\n    tag_242:\n        /* \"#utility.yul\":10842:10881   */\n      tag_243\n        /* \"#utility.yul\":10872:10880   */\n      dup7\n        /* \"#utility.yul\":10861:10870   */\n      dup4\n        /* \"#utility.yul\":10842:10881   */\n      tag_116\n      jump\t// in\n    tag_243:\n        /* \"#utility.yul\":10830:10881   */\n      swap6\n      pop\n        /* \"#utility.yul\":10914:10918   */\n      dup1\n        /* \"#utility.yul\":10910:10919   */\n      not\n        /* \"#utility.yul\":10903:10908   */\n      dup5\n        /* \"#utility.yul\":10899:10920   */\n      and\n        /* \"#utility.yul\":10890:10920   */\n      swap4\n      pop\n        /* \"#utility.yul\":10963:10967   */\n      dup1\n        /* \"#utility.yul\":10953:10961   */\n      dup7\n        /* \"#utility.yul\":10949:10968   */\n      and\n        /* \"#utility.yul\":10942:10947   */\n      dup5\n        /* \"#utility.yul\":10939:10969   */\n      or\n        /* \"#utility.yul\":10929:10969   */\n      swap3\n      pop\n        /* \"#utility.yul\":10658:10975   */\n      pop\n      pop\n        /* \"#utility.yul\":10582:10975   */\n      swap4\n      swap3\n      pop\n      pop\n      pop\n      jump\t// out\n        /* \"#utility.yul\":10981:11041   */\n    tag_118:\n        /* \"#utility.yul\":11009:11012   */\n      0x00\n        /* \"#utility.yul\":11030:11035   */\n      dup2\n        /* \"#utility.yul\":11023:11035   */\n      swap1\n      pop\n        /* \"#utility.yul\":10981:11041   */\n      swap2\n      swap1\n      pop\n      jump\t// out\n        /* \"#utility.yul\":11047:11189   */\n    tag_119:\n        /* \"#utility.yul\":11097:11106   */\n      0x00\n        /* \"#utility.yul\":11130:11183   */\n      tag_246\n        /* \"#utility.yul\":11148:11182   */\n      tag_247\n        /* \"#utility.yul\":11157:11181   */\n      tag_248\n        /* \"#utility.yul\":11175:11180   */\n      dup5\n        /* \"#utility.yul\":11157:11181   */\n      tag_82\n      jump\t// in\n    tag_248:\n        /* \"#utility.yul\":11148:11182   */\n      tag_118\n      jump\t// in\n    tag_247:\n        /* \"#utility.yul\":11130:11183   */\n      tag_82\n      jump\t// in\n    tag_246:\n        /* \"#utility.yul\":11117:11183   */\n      swap1\n      pop\n        /* \"#utility.yul\":11047:11189   */\n      swap2\n      swap1\n      pop\n      jump\t// out\n        /* \"#utility.yul\":11195:11270   */\n    tag_120:\n        /* \"#utility.yul\":11238:11241   */\n      0x00\n        /* \"#utility.yul\":11259:11264   */\n      dup2\n        /* \"#utility.yul\":11252:11264   */\n      swap1\n      pop\n        /* \"#utility.yul\":11195:11270   */\n      swap2\n      swap1\n      pop\n      jump\t// out\n        /* \"#utility.yul\":11276:11545   */\n    tag_121:\n        /* \"#utility.yul\":11386:11425   */\n      tag_251\n        /* \"#utility.yul\":11417:11424   */\n      dup4\n        /* \"#utility.yul\":11386:11425   */\n      tag_119\n      jump\t// in\n    tag_251:\n        /* \"#utility.yul\":11447:11538   */\n      tag_252\n        /* \"#utility.yul\":11496:11537   */\n      tag_253\n        /* \"#utility.yul\":11520:11536   */\n      dup3\n        /* \"#utility.yul\":11496:11537   */\n      tag_120\n      jump\t// in\n    tag_253:\n        /* \"#utility.yul\":11488:11494   */\n      dup5\n        /* \"#utility.yul\":11481:11485   */\n      dup5\n        /* \"#utility.yul\":11475:11486   */\n      sload\n        /* \"#utility.yul\":11447:11538   */\n      tag_117\n      jump\t// in\n    tag_252:\n        /* \"#utility.yul\":11441:11445   */\n      dup3\n        /* \"#utility.yul\":11434:11539   */\n      sstore\n        /* \"#utility.yul\":11352:11545   */\n      pop\n        /* \"#utility.yul\":11276:11545   */\n      pop\n      pop\n      pop\n      jump\t// out\n        /* \"#utility.yul\":11551:11624   */\n    tag_122:\n        /* \"#utility.yul\":11596:11599   */\n      0x00\n        /* \"#utility.yul\":11551:11624   */\n      swap1\n      jump\t// out\n        /* \"#utility.yul\":11630:11819   */\n    tag_123:\n        /* \"#utility.yul\":11707:11739   */\n      tag_256\n      tag_122\n      jump\t// in\n    tag_256:\n        /* \"#utility.yul\":11748:11813   */\n      tag_257\n        /* \"#utility.yul\":11806:11812   */\n      dup2\n        /* \"#utility.yul\":11798:11804   */\n      dup5\n        /* \"#utility.yul\":11792:11796   */\n      dup5\n        /* \"#utility.yul\":11748:11813   */\n      tag_121\n      jump\t// in\n    tag_257:\n        /* \"#utility.yul\":11683:11819   */\n      pop\n        /* \"#utility.yul\":11630:11819   */\n      pop\n      pop\n      jump\t// out\n        /* \"#utility.yul\":11825:12011   */\n    tag_124:\n        /* \"#utility.yul\":11885:12005   */\n    tag_259:\n        /* \"#utility.yul\":11902:11905   */\n      dup2\n        /* \"#utility.yul\":11895:11900   */\n      dup2\n        /* \"#utility.yul\":11892:11906   */\n      lt\n        /* \"#utility.yul\":11885:12005   */\n      iszero\n      tag_261\n      jumpi\n        /* \"#utility.yul\":11956:11995   */\n      tag_262\n        /* \"#utility.yul\":11993:11994   */\n      0x00\n        /* \"#utility.yul\":11986:11991   */\n      dup3\n        /* \"#utility.yul\":11956:11995   */\n      tag_123\n      jump\t// in\n    tag_262:\n        /* \"#utility.yul\":11929:11930   */\n      0x01\n        /* \"#utility.yul\":11922:11927   */\n      dup2\n        /* \"#utility.yul\":11918:11931   */\n      add\n        /* \"#utility.yul\":11909:11931   */\n      swap1\n      pop\n        /* \"#utility.yul\":11885:12005   */\n      jump(tag_259)\n    tag_261:\n        /* \"#utility.yul\":11825:12011   */\n      pop\n      pop\n      jump\t// out\n        /* \"#utility.yul\":12017:12560   */\n    tag_125:\n        /* \"#utility.yul\":12118:12120   */\n      0x1f\n        /* \"#utility.yul\":12113:12116   */\n      dup3\n        /* \"#utility.yul\":12110:12121   */\n      gt\n        /* \"#utility.yul\":12107:12553   */\n      iszero\n      tag_264\n      jumpi\n        /* \"#utility.yul\":12152:12190   */\n      tag_265\n        /* \"#utility.yul\":12184:12189   */\n      dup2\n        /* \"#utility.yul\":12152:12190   */\n      tag_114\n      jump\t// in\n    tag_265:\n        /* \"#utility.yul\":12236:12265   */\n      tag_266\n        /* \"#utility.yul\":12254:12264   */\n      dup5\n        /* \"#utility.yul\":12236:12265   */\n      tag_115\n      jump\t// in\n    tag_266:\n        /* \"#utility.yul\":12226:12234   */\n      dup2\n        /* \"#utility.yul\":12222:12266   */\n      add\n        /* \"#utility.yul\":12419:12421   */\n      0x20\n        /* \"#utility.yul\":12407:12417   */\n      dup6\n        /* \"#utility.yul\":12404:12422   */\n      lt\n        /* \"#utility.yul\":12401:12450   */\n      iszero\n      tag_267\n      jumpi\n        /* \"#utility.yul\":12440:12448   */\n      dup2\n        /* \"#utility.yul\":12425:12448   */\n      swap1\n      pop\n        /* \"#utility.yul\":12401:12450   */\n    tag_267:\n        /* \"#utility.yul\":12463:12543   */\n      tag_268\n        /* \"#utility.yul\":12519:12541   */\n      tag_269\n        /* \"#utility.yul\":12537:12540   */\n      dup6\n        /* \"#utility.yul\":12519:12541   */\n      tag_115\n      jump\t// in\n    tag_269:\n        /* \"#utility.yul\":12509:12517   */\n      dup4\n        /* \"#utility.yul\":12505:12542   */\n      add\n        /* \"#utility.yul\":12492:12503   */\n      dup3\n        /* \"#utility.yul\":12463:12543   */\n      tag_124\n      jump\t// in\n    tag_268:\n        /* \"#utility.yul\":12122:12553   */\n      pop\n      pop\n        /* \"#utility.yul\":12107:12553   */\n    tag_264:\n        /* \"#utility.yul\":12017:12560   */\n      pop\n      pop\n      pop\n      jump\t// out\n        /* \"#utility.yul\":12566:12683   */\n    tag_126:\n        /* \"#utility.yul\":12620:12628   */\n      0x00\n        /* \"#utility.yul\":12670:12675   */\n      dup3\n        /* \"#utility.yul\":12664:12668   */\n      dup3\n        /* \"#utility.yul\":12660:12676   */\n      shr\n        /* \"#utility.yul\":12639:12676   */\n      swap1\n      pop\n        /* \"#utility.yul\":12566:12683   */\n      swap3\n      swap2\n      pop\n      pop\n      jump\t// out\n        /* \"#utility.yul\":12689:12858   */\n    tag_127:\n        /* \"#utility.yul\":12733:12739   */\n      0x00\n        /* \"#utility.yul\":12766:12817   */\n      tag_272\n        /* \"#utility.yul\":12814:12815   */\n      0x00\n        /* \"#utility.yul\":12810:12816   */\n      not\n        /* \"#utility.yul\":12802:12807   */\n      dup5\n        /* \"#utility.yul\":12799:12800   */\n      0x08\n        /* \"#utility.yul\":12795:12808   */\n      mul\n        /* \"#utility.yul\":12766:12817   */\n      tag_126\n      jump\t// in\n    tag_272:\n        /* \"#utility.yul\":12762:12818   */\n      not\n        /* \"#utility.yul\":12847:12851   */\n      dup1\n        /* \"#utility.yul\":12841:12845   */\n      dup4\n        /* \"#utility.yul\":12837:12852   */\n      and\n        /* \"#utility.yul\":12827:12852   */\n      swap2\n      pop\n        /* \"#utility.yul\":12740:12858   */\n      pop\n        /* \"#utility.yul\":12689:12858   */\n      swap3\n      swap2\n      pop\n      pop\n      jump\t// out\n        /* \"#utility.yul\":12863:13158   */\n    tag_128:\n        /* \"#utility.yul\":12939:12943   */\n      0x00\n        /* \"#utility.yul\":13085:13114   */\n      tag_274\n        /* \"#utility.yul\":13110:13113   */\n      dup4\n        /* \"#utility.yul\":13104:13108   */\n      dup4\n        /* \"#utility.yul\":13085:13114   */\n      tag_127\n      jump\t// in\n    tag_274:\n        /* \"#utility.yul\":13077:13114   */\n      swap2\n      pop\n        /* \"#utility.yul\":13147:13150   */\n      dup3\n        /* \"#utility.yul\":13144:13145   */\n      0x02\n        /* \"#utility.yul\":13140:13151   */\n      mul\n        /* \"#utility.yul\":13134:13138   */\n      dup3\n        /* \"#utility.yul\":13131:13152   */\n      or\n        /* \"#utility.yul\":13123:13152   */\n      swap1\n      pop\n        /* \"#utility.yul\":12863:13158   */\n      swap3\n      swap2\n      pop\n      pop\n      jump\t// out\n        /* \"#utility.yul\":13163:14558   */\n    tag_77:\n        /* \"#utility.yul\":13280:13317   */\n      tag_276\n        /* \"#utility.yul\":13313:13316   */\n      dup3\n        /* \"#utility.yul\":13280:13317   */\n      tag_93\n      jump\t// in\n    tag_276:\n        /* \"#utility.yul\":13382:13400   */\n      0xffffffffffffffff\n        /* \"#utility.yul\":13374:13380   */\n      dup2\n        /* \"#utility.yul\":13371:13401   */\n      gt\n        /* \"#utility.yul\":13368:13424   */\n      iszero\n      tag_277\n      jumpi\n        /* \"#utility.yul\":13404:13422   */\n      tag_278\n      tag_100\n      jump\t// in\n    tag_278:\n        /* \"#utility.yul\":13368:13424   */\n    tag_277:\n        /* \"#utility.yul\":13448:13486   */\n      tag_279\n        /* \"#utility.yul\":13480:13484   */\n      dup3\n        /* \"#utility.yul\":13474:13485   */\n      sload\n        /* \"#utility.yul\":13448:13486   */\n      tag_50\n      jump\t// in\n    tag_279:\n        /* \"#utility.yul\":13533:13600   */\n      tag_280\n        /* \"#utility.yul\":13593:13599   */\n      dup3\n        /* \"#utility.yul\":13585:13591   */\n      dup3\n        /* \"#utility.yul\":13579:13583   */\n      dup6\n        /* \"#utility.yul\":13533:13600   */\n      tag_125\n      jump\t// in\n    tag_280:\n        /* \"#utility.yul\":13627:13628   */\n      0x00\n        /* \"#utility.yul\":13651:13655   */\n      0x20\n        /* \"#utility.yul\":13638:13655   */\n      swap1\n      pop\n        /* \"#utility.yul\":13683:13685   */\n      0x1f\n        /* \"#utility.yul\":13675:13681   */\n      dup4\n        /* \"#utility.yul\":13672:13686   */\n      gt\n        /* \"#utility.yul\":13700:13701   */\n      0x01\n        /* \"#utility.yul\":13695:14313   */\n      dup2\n      eq\n      tag_282\n      jumpi\n        /* \"#utility.yul\":14357:14358   */\n      0x00\n        /* \"#utility.yul\":14374:14380   */\n      dup5\n        /* \"#utility.yul\":14371:14448   */\n      iszero\n      tag_283\n      jumpi\n        /* \"#utility.yul\":14423:14432   */\n      dup3\n        /* \"#utility.yul\":14418:14421   */\n      dup8\n        /* \"#utility.yul\":14414:14433   */\n      add\n        /* \"#utility.yul\":14408:14434   */\n      mload\n        /* \"#utility.yul\":14399:14434   */\n      swap1\n      pop\n        /* \"#utility.yul\":14371:14448   */\n    tag_283:\n        /* \"#utility.yul\":14474:14541   */\n      tag_284\n        /* \"#utility.yul\":14534:14540   */\n      dup6\n        /* \"#utility.yul\":14527:14532   */\n      dup3\n        /* \"#utility.yul\":14474:14541   */\n      tag_128\n      jump\t// in\n    tag_284:\n        /* \"#utility.yul\":14468:14472   */\n      dup7\n        /* \"#utility.yul\":14461:14542   */\n      sstore\n        /* \"#utility.yul\":14330:14552   */\n      pop\n        /* \"#utility.yul\":13665:14552   */\n      jump(tag_281)\n        /* \"#utility.yul\":13695:14313   */\n    tag_282:\n        /* \"#utility.yul\":13747:13751   */\n      0x1f\n        /* \"#utility.yul\":13743:13752   */\n      not\n        /* \"#utility.yul\":13735:13741   */\n      dup5\n        /* \"#utility.yul\":13731:13753   */\n      and\n        /* \"#utility.yul\":13781:13818   */\n      tag_285\n        /* \"#utility.yul\":13813:13817   */\n      dup7\n        /* \"#utility.yul\":13781:13818   */\n      tag_114\n      jump\t// in\n    tag_285:\n        /* \"#utility.yul\":13840:13841   */\n      0x00\n        /* \"#utility.yul\":13854:14062   */\n    tag_286:\n        /* \"#utility.yul\":13868:13875   */\n      dup3\n        /* \"#utility.yul\":13865:13866   */\n      dup2\n        /* \"#utility.yul\":13862:13876   */\n      lt\n        /* \"#utility.yul\":13854:14062   */\n      iszero\n      tag_288\n      jumpi\n        /* \"#utility.yul\":13947:13956   */\n      dup5\n        /* \"#utility.yul\":13942:13945   */\n      dup10\n        /* \"#utility.yul\":13938:13957   */\n      add\n        /* \"#utility.yul\":13932:13958   */\n      mload\n        /* \"#utility.yul\":13924:13930   */\n      dup3\n        /* \"#utility.yul\":13917:13959   */\n      sstore\n        /* \"#utility.yul\":13998:13999   */\n      0x01\n        /* \"#utility.yul\":13990:13996   */\n      dup3\n        /* \"#utility.yul\":13986:14000   */\n      add\n        /* \"#utility.yul\":13976:14000   */\n      swap2\n      pop\n        /* \"#utility.yul\":14045:14047   */\n      0x20\n        /* \"#utility.yul\":14034:14043   */\n      dup6\n        /* \"#utility.yul\":14030:14048   */\n      add\n        /* \"#utility.yul\":14017:14048   */\n      swap5\n      pop\n        /* \"#utility.yul\":13891:13895   */\n      0x20\n        /* \"#utility.yul\":13888:13889   */\n      dup2\n        /* \"#utility.yul\":13884:13896   */\n      add\n        /* \"#utility.yul\":13879:13896   */\n      swap1\n      pop\n        /* \"#utility.yul\":13854:14062   */\n      jump(tag_286)\n    tag_288:\n        /* \"#utility.yul\":14090:14096   */\n      dup7\n        /* \"#utility.yul\":14081:14088   */\n      dup4\n        /* \"#utility.yul\":14078:14097   */\n      lt\n        /* \"#utility.yul\":14075:14254   */\n      iszero\n      tag_289\n      jumpi\n        /* \"#utility.yul\":14148:14157   */\n      dup5\n        /* \"#utility.yul\":14143:14146   */\n      dup10\n        /* \"#utility.yul\":14139:14158   */\n      add\n        /* \"#utility.yul\":14133:14159   */\n      mload\n        /* \"#utility.yul\":14191:14239   */\n      tag_290\n        /* \"#utility.yul\":14233:14237   */\n      0x1f\n        /* \"#utility.yul\":14225:14231   */\n      dup10\n        /* \"#utility.yul\":14221:14238   */\n      and\n        /* \"#utility.yul\":14210:14219   */\n      dup3\n        /* \"#utility.yul\":14191:14239   */\n      tag_127\n      jump\t// in\n    tag_290:\n        /* \"#utility.yul\":14183:14189   */\n      dup4\n        /* \"#utility.yul\":14176:14240   */\n      sstore\n        /* \"#utility.yul\":14098:14254   */\n      pop\n        /* \"#utility.yul\":14075:14254   */\n    tag_289:\n        /* \"#utility.yul\":14300:14301   */\n      0x01\n        /* \"#utility.yul\":14296:14297   */\n      0x02\n        /* \"#utility.yul\":14288:14294   */\n      dup9\n        /* \"#utility.yul\":14284:14298   */\n      mul\n        /* \"#utility.yul\":14280:14302   */\n      add\n        /* \"#utility.yul\":14274:14278   */\n      dup9\n        /* \"#utility.yul\":14267:14303   */\n      sstore\n        /* \"#utility.yul\":13702:14313   */\n      pop\n      pop\n      pop\n        /* \"#utility.yul\":13665:14552   */\n    tag_281:\n      pop\n        /* \"#utility.yul\":13255:14558   */\n      pop\n      pop\n      pop\n        /* \"#utility.yul\":13163:14558   */\n      pop\n      pop\n      jump\t// out\n\n    auxdata: 0xa2646970667358221220f8a4b5cd7356de97476643c3f4689e9827fd1d328f5f176c0108ec3c22c9df5a64736f6c63430008140033\n}\n",
				"bytecode": {
					"linkReferences": {},
					"object": "608060405234801561000f575f80fd5b50335f806101000a81548173ffffffffffffffffffffffffffffffffffffffff021916908373ffffffffffffffffffffffffffffffffffffffff160217905550610e3b8061005c5f395ff3fe608060405234801561000f575f80fd5b506004361061007b575f3560e01c806387d817891161005957806387d81789146100e95780638d920b021461011d578063b9c6664d14610139578063f851a440146101555761007b565b80630937e68a1461007f5780632858c7641461009d5780635b057fd1146100cd575b5f80fd5b610087610173565b6040516100949190610629565b60405180910390f35b6100b760048036038101906100b2919061067d565b610179565b6040516100c4919061071b565b60405180910390f35b6100e760048036038101906100e2919061067d565b6101a2565b005b61010360048036038101906100fe919061067d565b61026d565b6040516101149594939291906107be565b60405180910390f35b6101376004803603810190610132919061067d565b61043d565b005b610153600480360381019061014e9190610950565b610509565b005b61015d6105ee565b60405161016a9190610a47565b60405180910390f35b60025481565b5f60015f8381526020019081526020015f206004015f9054906101000a900460ff169050919050565b5f8054906101000a900473ffffffffffffffffffffffffffffffffffffffff1673ffffffffffffffffffffffffffffffffffffffff163373ffffffffffffffffffffffffffffffffffffffff161461022f576040517f08c379a000000000000000000000000000000000000000000000000000000000815260040161022690610aaa565b60405180910390fd5b6001805f8381526020019081526020015f206004015f6101000a81548160ff02191690836002811115610265576102646106a8565b5b021790555050565b6001602052805f5260405f205f91509050805f01805461028c90610af5565b80601f01602080910402602001604051908101604052809291908181526020018280546102b890610af5565b80156103035780601f106102da57610100808354040283529160200191610303565b820191905f5260205f20905b8154815290600101906020018083116102e657829003601f168201915b50505050509080600101805461031890610af5565b80601f016020809104026020016040519081016040528092919081815260200182805461034490610af5565b801561038f5780601f106103665761010080835404028352916020019161038f565b820191905f5260205f20905b81548152906001019060200180831161037257829003601f168201915b5050505050908060020154908060030180546103aa90610af5565b80601f01602080910402602001604051908101604052809291908181526020018280546103d690610af5565b80156104215780601f106103f857610100808354040283529160200191610421565b820191905f5260205f20905b81548152906001019060200180831161040457829003601f168201915b505050505090806004015f9054906101000a900460ff16905085565b5f8054906101000a900473ffffffffffffffffffffffffffffffffffffffff1673ffffffffffffffffffffffffffffffffffffffff163373ffffffffffffffffffffffffffffffffffffffff16146104ca576040517f08c379a00000000000000000000000000000000000000000000000000000000081526004016104c190610aaa565b60405180910390fd5b600260015f8381526020019081526020015f206004015f6101000a81548160ff02191690836002811115610501576105006106a8565b5b021790555050565b60025f81548092919061051b90610b52565b91905055506040518060a001604052808581526020018481526020018381526020018281526020015f6002811115610556576105556106a8565b5b81525060015f60025481526020019081526020015f205f820151815f01908161057f9190610d36565b5060208201518160010190816105959190610d36565b506040820151816002015560608201518160030190816105b59190610d36565b506080820151816004015f6101000a81548160ff021916908360028111156105e0576105df6106a8565b5b021790555090505050505050565b5f8054906101000a900473ffffffffffffffffffffffffffffffffffffffff1681565b5f819050919050565b61062381610611565b82525050565b5f60208201905061063c5f83018461061a565b92915050565b5f604051905090565b5f80fd5b5f80fd5b61065c81610611565b8114610666575f80fd5b50565b5f8135905061067781610653565b92915050565b5f602082840312156106925761069161064b565b5b5f61069f84828501610669565b91505092915050565b7f4e487b71000000000000000000000000000000000000000000000000000000005f52602160045260245ffd5b600381106106e6576106e56106a8565b5b50565b5f8190506106f6826106d5565b919050565b5f610705826106e9565b9050919050565b610715816106fb565b82525050565b5f60208201905061072e5f83018461070c565b92915050565b5f81519050919050565b5f82825260208201905092915050565b5f5b8381101561076b578082015181840152602081019050610750565b5f8484015250505050565b5f601f19601f8301169050919050565b5f61079082610734565b61079a818561073e565b93506107aa81856020860161074e565b6107b381610776565b840191505092915050565b5f60a0820190508181035f8301526107d68188610786565b905081810360208301526107ea8187610786565b90506107f9604083018661061a565b818103606083015261080b8185610786565b905061081a608083018461070c565b9695505050505050565b5f80fd5b5f80fd5b7f4e487b71000000000000000000000000000000000000000000000000000000005f52604160045260245ffd5b61086282610776565b810181811067ffffffffffffffff821117156108815761088061082c565b5b80604052505050565b5f610893610642565b905061089f8282610859565b919050565b5f67ffffffffffffffff8211156108be576108bd61082c565b5b6108c782610776565b9050602081019050919050565b828183375f83830152505050565b5f6108f46108ef846108a4565b61088a565b9050828152602081018484840111156109105761090f610828565b5b61091b8482856108d4565b509392505050565b5f82601f83011261093757610936610824565b5b81356109478482602086016108e2565b91505092915050565b5f805f80608085870312156109685761096761064b565b5b5f85013567ffffffffffffffff8111156109855761098461064f565b5b61099187828801610923565b945050602085013567ffffffffffffffff8111156109b2576109b161064f565b5b6109be87828801610923565b93505060406109cf87828801610669565b925050606085013567ffffffffffffffff8111156109f0576109ef61064f565b5b6109fc87828801610923565b91505092959194509250565b5f73ffffffffffffffffffffffffffffffffffffffff82169050919050565b5f610a3182610a08565b9050919050565b610a4181610a27565b82525050565b5f602082019050610a5a5f830184610a38565b92915050565b7f41646d696e206f6e6c79000000000000000000000000000000000000000000005f82015250565b5f610a94600a8361073e565b9150610a9f82610a60565b602082019050919050565b5f6020820190508181035f830152610ac181610a88565b9050919050565b7f4e487b71000000000000000000000000000000000000000000000000000000005f52602260045260245ffd5b5f6002820490506001821680610b0c57607f821691505b602082108103610b1f57610b1e610ac8565b5b50919050565b7f4e487b71000000000000000000000000000000000000000000000000000000005f52601160045260245ffd5b5f610b5c82610611565b91507fffffffffffffffffffffffffffffffffffffffffffffffffffffffffffffffff8203610b8e57610b8d610b25565b5b600182019050919050565b5f819050815f5260205f209050919050565b5f6020601f8301049050919050565b5f82821b905092915050565b5f60088302610bf57fffffffffffffffffffffffffffffffffffffffffffffffffffffffffffffffff82610bba565b610bff8683610bba565b95508019841693508086168417925050509392505050565b5f819050919050565b5f610c3a610c35610c3084610611565b610c17565b610611565b9050919050565b5f819050919050565b610c5383610c20565b610c67610c5f82610c41565b848454610bc6565b825550505050565b5f90565b610c7b610c6f565b610c86818484610c4a565b505050565b5b81811015610ca957610c9e5f82610c73565b600181019050610c8c565b5050565b601f821115610cee57610cbf81610b99565b610cc884610bab565b81016020851015610cd7578190505b610ceb610ce385610bab565b830182610c8b565b50505b505050565b5f82821c905092915050565b5f610d0e5f1984600802610cf3565b1980831691505092915050565b5f610d268383610cff565b9150826002028217905092915050565b610d3f82610734565b67ffffffffffffffff811115610d5857610d5761082c565b5b610d628254610af5565b610d6d828285610cad565b5f60209050601f831160018114610d9e575f8415610d8c578287015190505b610d968582610d1b565b865550610dfd565b601f198416610dac86610b99565b5f5b82811015610dd357848901518255600182019150602085019450602081019050610dae565b86831015610df05784890151610dec601f891682610cff565b8355505b6001600288020188555050505b50505050505056fea2646970667358221220f8a4b5cd7356de97476643c3f4689e9827fd1d328f5f176c0108ec3c22c9df5a64736f6c63430008140033",
					"opcodes": "PUSH1 0x80 PUSH1 0x40 MSTORE CALLVALUE DUP1 ISZERO PUSH2 0xF JUMPI PUSH0 DUP1 REVERT JUMPDEST POP CALLER PUSH0 DUP1 PUSH2 0x100 EXP DUP2 SLOAD DUP2 PUSH20 0xFFFFFFFFFFFFFFFFFFFFFFFFFFFFFFFFFFFFFFFF MUL NOT AND SWAP1 DUP4 PUSH20 0xFFFFFFFFFFFFFFFFFFFFFFFFFFFFFFFFFFFFFFFF AND MUL OR SWAP1 SSTORE POP PUSH2 0xE3B DUP1 PUSH2 0x5C PUSH0 CODECOPY PUSH0 RETURN INVALID PUSH1 0x80 PUSH1 0x40 MSTORE CALLVALUE DUP1 ISZERO PUSH2 0xF JUMPI PUSH0 DUP1 REVERT JUMPDEST POP PUSH1 0x4 CALLDATASIZE LT PUSH2 0x7B JUMPI PUSH0 CALLDATALOAD PUSH1 0xE0 SHR DUP1 PUSH4 0x87D81789 GT PUSH2 0x59 JUMPI DUP1 PUSH4 0x87D81789 EQ PUSH2 0xE9 JUMPI DUP1 PUSH4 0x8D920B02 EQ PUSH2 0x11D JUMPI DUP1 PUSH4 0xB9C6664D EQ PUSH2 0x139 JUMPI DUP1 PUSH4 0xF851A440 EQ PUSH2 0x155 JUMPI PUSH2 0x7B JUMP JUMPDEST DUP1 PUSH4 0x937E68A EQ PUSH2 0x7F JUMPI DUP1 PUSH4 0x2858C764 EQ PUSH2 0x9D JUMPI DUP1 PUSH4 0x5B057FD1 EQ PUSH2 0xCD JUMPI JUMPDEST PUSH0 DUP1 REVERT JUMPDEST PUSH2 0x87 PUSH2 0x173 JUMP JUMPDEST PUSH1 0x40 MLOAD PUSH2 0x94 SWAP2 SWAP1 PUSH2 0x629 JUMP JUMPDEST PUSH1 0x40 MLOAD DUP1 SWAP2 SUB SWAP1 RETURN JUMPDEST PUSH2 0xB7 PUSH1 0x4 DUP1 CALLDATASIZE SUB DUP2 ADD SWAP1 PUSH2 0xB2 SWAP2 SWAP1 PUSH2 0x67D JUMP JUMPDEST PUSH2 0x179 JUMP JUMPDEST PUSH1 0x40 MLOAD PUSH2 0xC4 SWAP2 SWAP1 PUSH2 0x71B JUMP JUMPDEST PUSH1 0x40 MLOAD DUP1 SWAP2 SUB SWAP1 RETURN JUMPDEST PUSH2 0xE7 PUSH1 0x4 DUP1 CALLDATASIZE SUB DUP2 ADD SWAP1 PUSH2 0xE2 SWAP2 SWAP1 PUSH2 0x67D JUMP JUMPDEST PUSH2 0x1A2 JUMP JUMPDEST STOP JUMPDEST PUSH2 0x103 PUSH1 0x4 DUP1 CALLDATASIZE SUB DUP2 ADD SWAP1 PUSH2 0xFE SWAP2 SWAP1 PUSH2 0x67D JUMP JUMPDEST PUSH2 0x26D JUMP JUMPDEST PUSH1 0x40 MLOAD PUSH2 0x114 SWAP6 SWAP5 SWAP4 SWAP3 SWAP2 SWAP1 PUSH2 0x7BE JUMP JUMPDEST PUSH1 0x40 MLOAD DUP1 SWAP2 SUB SWAP1 RETURN JUMPDEST PUSH2 0x137 PUSH1 0x4 DUP1 CALLDATASIZE SUB DUP2 ADD SWAP1 PUSH2 0x132 SWAP2 SWAP1 PUSH2 0x67D JUMP JUMPDEST PUSH2 0x43D JUMP JUMPDEST STOP JUMPDEST PUSH2 0x153 PUSH1 0x4 DUP1 CALLDATASIZE SUB DUP2 ADD SWAP1 PUSH2 0x14E SWAP2 SWAP1 PUSH2 0x950 JUMP JUMPDEST PUSH2 0x509 JUMP JUMPDEST STOP JUMPDEST PUSH2 0x15D PUSH2 0x5EE JUMP JUMPDEST PUSH1 0x40 MLOAD PUSH2 0x16A SWAP2 SWAP1 PUSH2 0xA47 JUMP JUMPDEST PUSH1 0x40 MLOAD DUP1 SWAP2 SUB SWAP1 RETURN JUMPDEST PUSH1 0x2 SLOAD DUP2 JUMP JUMPDEST PUSH0 PUSH1 0x1 PUSH0 DUP4 DUP2 MSTORE PUSH1 0x20 ADD SWAP1 DUP2 MSTORE PUSH1 0x20 ADD PUSH0 KECCAK256 PUSH1 0x4 ADD PUSH0 SWAP1 SLOAD SWAP1 PUSH2 0x100 EXP SWAP1 DIV PUSH1 0xFF AND SWAP1 POP SWAP2 SWAP1 POP JUMP JUMPDEST PUSH0 DUP1 SLOAD SWAP1 PUSH2 0x100 EXP SWAP1 DIV PUSH20 0xFFFFFFFFFFFFFFFFFFFFFFFFFFFFFFFFFFFFFFFF AND PUSH20 0xFFFFFFFFFFFFFFFFFFFFFFFFFFFFFFFFFFFFFFFF AND CALLER PUSH20 0xFFFFFFFFFFFFFFFFFFFFFFFFFFFFFFFFFFFFFFFF AND EQ PUSH2 0x22F JUMPI PUSH1 0x40 MLOAD PUSH32 0x8C379A000000000000000000000000000000000000000000000000000000000 DUP2 MSTORE PUSH1 0x4 ADD PUSH2 0x226 SWAP1 PUSH2 0xAAA JUMP JUMPDEST PUSH1 0x40 MLOAD DUP1 SWAP2 SUB SWAP1 REVERT JUMPDEST PUSH1 0x1 DUP1 PUSH0 DUP4 DUP2 MSTORE PUSH1 0x20 ADD SWAP1 DUP2 MSTORE PUSH1 0x20 ADD PUSH0 KECCAK256 PUSH1 0x4 ADD PUSH0 PUSH2 0x100 EXP DUP2 SLOAD DUP2 PUSH1 0xFF MUL NOT AND SWAP1 DUP4 PUSH1 0x2 DUP2 GT ISZERO PUSH2 0x265 JUMPI PUSH2 0x264 PUSH2 0x6A8 JUMP JUMPDEST JUMPDEST MUL OR SWAP1 SSTORE POP POP JUMP JUMPDEST PUSH1 0x1 PUSH1 0x20 MSTORE DUP1 PUSH0 MSTORE PUSH1 0x40 PUSH0 KECCAK256 PUSH0 SWAP2 POP SWAP1 POP DUP1 PUSH0 ADD DUP1 SLOAD PUSH2 0x28C SWAP1 PUSH2 0xAF5 JUMP JUMPDEST DUP1 PUSH1 0x1F ADD PUSH1 0x20 DUP1 SWAP2 DIV MUL PUSH1 0x20 ADD PUSH1 0x40 MLOAD SWAP1 DUP2 ADD PUSH1 0x40 MSTORE DUP1 SWAP3 SWAP2 SWAP1 DUP2 DUP2 MSTORE PUSH1 0x20 ADD DUP3 DUP1 SLOAD PUSH2 0x2B8 SWAP1 PUSH2 0xAF5 JUMP JUMPDEST DUP1 ISZERO PUSH2 0x303 JUMPI DUP1 PUSH1 0x1F LT PUSH2 0x2DA JUMPI PUSH2 0x100 DUP1 DUP4 SLOAD DIV MUL DUP4 MSTORE SWAP2 PUSH1 0x20 ADD SWAP2 PUSH2 0x303 JUMP JUMPDEST DUP3 ADD SWAP2 SWAP1 PUSH0 MSTORE PUSH1 0x20 PUSH0 KECCAK256 SWAP1 JUMPDEST DUP2 SLOAD DUP2 MSTORE SWAP1 PUSH1 0x1 ADD SWAP1 PUSH1 0x20 ADD DUP1 DUP4 GT PUSH2 0x2E6 JUMPI DUP3 SWAP1 SUB PUSH1 0x1F AND DUP3 ADD SWAP2 JUMPDEST POP POP POP POP POP SWAP1 DUP1 PUSH1 0x1 ADD DUP1 SLOAD PUSH2 0x318 SWAP1 PUSH2 0xAF5 JUMP JUMPDEST DUP1 PUSH1 0x1F ADD PUSH1 0x20 DUP1 SWAP2 DIV MUL PUSH1 0x20 ADD PUSH1 0x40 MLOAD SWAP1 DUP2 ADD PUSH1 0x40 MSTORE DUP1 SWAP3 SWAP2 SWAP1 DUP2 DUP2 MSTORE PUSH1 0x20 ADD DUP3 DUP1 SLOAD PUSH2 0x344 SWAP1 PUSH2 0xAF5 JUMP JUMPDEST DUP1 ISZERO PUSH2 0x38F JUMPI DUP1 PUSH1 0x1F LT PUSH2 0x366 JUMPI PUSH2 0x100 DUP1 DUP4 SLOAD DIV MUL DUP4 MSTORE SWAP2 PUSH1 0x20 ADD SWAP2 PUSH2 0x38F JUMP JUMPDEST DUP3 ADD SWAP2 SWAP1 PUSH0 MSTORE PUSH1 0x20 PUSH0 KECCAK256 SWAP1 JUMPDEST DUP2 SLOAD DUP2 MSTORE SWAP1 PUSH1 0x1 ADD SWAP1 PUSH1 0x20 ADD DUP1 DUP4 GT PUSH2 0x372 JUMPI DUP3 SWAP1 SUB PUSH1 0x1F AND DUP3 ADD SWAP2 JUMPDEST POP POP POP POP POP SWAP1 DUP1 PUSH1 0x2 ADD SLOAD SWAP1 DUP1 PUSH1 0x3 ADD DUP1 SLOAD PUSH2 0x3AA SWAP1 PUSH2 0xAF5 JUMP JUMPDEST DUP1 PUSH1 0x1F ADD PUSH1 0x20 DUP1 SWAP2 DIV MUL PUSH1 0x20 ADD PUSH1 0x40 MLOAD SWAP1 DUP2 ADD PUSH1 0x40 MSTORE DUP1 SWAP3 SWAP2 SWAP1 DUP2 DUP2 MSTORE PUSH1 0x20 ADD DUP3 DUP1 SLOAD PUSH2 0x3D6 SWAP1 PUSH2 0xAF5 JUMP JUMPDEST DUP1 ISZERO PUSH2 0x421 JUMPI DUP1 PUSH1 0x1F LT PUSH2 0x3F8 JUMPI PUSH2 0x100 DUP1 DUP4 SLOAD DIV MUL DUP4 MSTORE SWAP2 PUSH1 0x20 ADD SWAP2 PUSH2 0x421 JUMP JUMPDEST DUP3 ADD SWAP2 SWAP1 PUSH0 MSTORE PUSH1 0x20 PUSH0 KECCAK256 SWAP1 JUMPDEST DUP2 SLOAD DUP2 MSTORE SWAP1 PUSH1 0x1 ADD SWAP1 PUSH1 0x20 ADD DUP1 DUP4 GT PUSH2 0x404 JUMPI DUP3 SWAP1 SUB PUSH1 0x1F AND DUP3 ADD SWAP2 JUMPDEST POP POP POP POP POP SWAP1 DUP1 PUSH1 0x4 ADD PUSH0 SWAP1 SLOAD SWAP1 PUSH2 0x100 EXP SWAP1 DIV PUSH1 0xFF AND SWAP1 POP DUP6 JUMP JUMPDEST PUSH0 DUP1 SLOAD SWAP1 PUSH2 0x100 EXP SWAP1 DIV PUSH20 0xFFFFFFFFFFFFFFFFFFFFFFFFFFFFFFFFFFFFFFFF AND PUSH20 0xFFFFFFFFFFFFFFFFFFFFFFFFFFFFFFFFFFFFFFFF AND CALLER PUSH20 0xFFFFFFFFFFFFFFFFFFFFFFFFFFFFFFFFFFFFFFFF AND EQ PUSH2 0x4CA JUMPI PUSH1 0x40 MLOAD PUSH32 0x8C379A000000000000000000000000000000000000000000000000000000000 DUP2 MSTORE PUSH1 0x4 ADD PUSH2 0x4C1 SWAP1 PUSH2 0xAAA JUMP JUMPDEST PUSH1 0x40 MLOAD DUP1 SWAP2 SUB SWAP1 REVERT JUMPDEST PUSH1 0x2 PUSH1 0x1 PUSH0 DUP4 DUP2 MSTORE PUSH1 0x20 ADD SWAP1 DUP2 MSTORE PUSH1 0x20 ADD PUSH0 KECCAK256 PUSH1 0x4 ADD PUSH0 PUSH2 0x100 EXP DUP2 SLOAD DUP2 PUSH1 0xFF MUL NOT AND SWAP1 DUP4 PUSH1 0x2 DUP2 GT ISZERO PUSH2 0x501 JUMPI PUSH2 0x500 PUSH2 0x6A8 JUMP JUMPDEST JUMPDEST MUL OR SWAP1 SSTORE POP POP JUMP JUMPDEST PUSH1 0x2 PUSH0 DUP2 SLOAD DUP1 SWAP3 SWAP2 SWAP1 PUSH2 0x51B SWAP1 PUSH2 0xB52 JUMP JUMPDEST SWAP2 SWAP1 POP SSTORE POP PUSH1 0x40 MLOAD DUP1 PUSH1 0xA0 ADD PUSH1 0x40 MSTORE DUP1 DUP6 DUP2 MSTORE PUSH1 0x20 ADD DUP5 DUP2 MSTORE PUSH1 0x20 ADD DUP4 DUP2 MSTORE PUSH1 0x20 ADD DUP3 DUP2 MSTORE PUSH1 0x20 ADD PUSH0 PUSH1 0x2 DUP2 GT ISZERO PUSH2 0x556 JUMPI PUSH2 0x555 PUSH2 0x6A8 JUMP JUMPDEST JUMPDEST DUP2 MSTORE POP PUSH1 0x1 PUSH0 PUSH1 0x2 SLOAD DUP2 MSTORE PUSH1 0x20 ADD SWAP1 DUP2 MSTORE PUSH1 0x20 ADD PUSH0 KECCAK256 PUSH0 DUP3 ADD MLOAD DUP2 PUSH0 ADD SWAP1 DUP2 PUSH2 0x57F SWAP2 SWAP1 PUSH2 0xD36 JUMP JUMPDEST POP PUSH1 0x20 DUP3 ADD MLOAD DUP2 PUSH1 0x1 ADD SWAP1 DUP2 PUSH2 0x595 SWAP2 SWAP1 PUSH2 0xD36 JUMP JUMPDEST POP PUSH1 0x40 DUP3 ADD MLOAD DUP2 PUSH1 0x2 ADD SSTORE PUSH1 0x60 DUP3 ADD MLOAD DUP2 PUSH1 0x3 ADD SWAP1 DUP2 PUSH2 0x5B5 SWAP2 SWAP1 PUSH2 0xD36 JUMP JUMPDEST POP PUSH1 0x80 DUP3 ADD MLOAD DUP2 PUSH1 0x4 ADD PUSH0 PUSH2 0x100 EXP DUP2 SLOAD DUP2 PUSH1 0xFF MUL NOT AND SWAP1 DUP4 PUSH1 0x2 DUP2 GT ISZERO PUSH2 0x5E0 JUMPI PUSH2 0x5DF PUSH2 0x6A8 JUMP JUMPDEST JUMPDEST MUL OR SWAP1 SSTORE POP SWAP1 POP POP POP POP POP POP JUMP JUMPDEST PUSH0 DUP1 SLOAD SWAP1 PUSH2 0x100 EXP SWAP1 DIV PUSH20 0xFFFFFFFFFFFFFFFFFFFFFFFFFFFFFFFFFFFFFFFF AND DUP2 JUMP JUMPDEST PUSH0 DUP2 SWAP1 POP SWAP2 SWAP1 POP JUMP JUMPDEST PUSH2 0x623 DUP2 PUSH2 0x611 JUMP JUMPDEST DUP3 MSTORE POP POP JUMP JUMPDEST PUSH0 PUSH1 0x20 DUP3 ADD SWAP1 POP PUSH2 0x63C PUSH0 DUP4 ADD DUP5 PUSH2 0x61A JUMP JUMPDEST SWAP3 SWAP2 POP POP JUMP JUMPDEST PUSH0 PUSH1 0x40 MLOAD SWAP1 POP SWAP1 JUMP JUMPDEST PUSH0 DUP1 REVERT JUMPDEST PUSH0 DUP1 REVERT JUMPDEST PUSH2 0x65C DUP2 PUSH2 0x611 JUMP JUMPDEST DUP2 EQ PUSH2 0x666 JUMPI PUSH0 DUP1 REVERT JUMPDEST POP JUMP JUMPDEST PUSH0 DUP2 CALLDATALOAD SWAP1 POP PUSH2 0x677 DUP2 PUSH2 0x653 JUMP JUMPDEST SWAP3 SWAP2 POP POP JUMP JUMPDEST PUSH0 PUSH1 0x20 DUP3 DUP5 SUB SLT ISZERO PUSH2 0x692 JUMPI PUSH2 0x691 PUSH2 0x64B JUMP JUMPDEST JUMPDEST PUSH0 PUSH2 0x69F DUP5 DUP3 DUP6 ADD PUSH2 0x669 JUMP JUMPDEST SWAP2 POP POP SWAP3 SWAP2 POP POP JUMP JUMPDEST PUSH32 0x4E487B7100000000000000000000000000000000000000000000000000000000 PUSH0 MSTORE PUSH1 0x21 PUSH1 0x4 MSTORE PUSH1 0x24 PUSH0 REVERT JUMPDEST PUSH1 0x3 DUP2 LT PUSH2 0x6E6 JUMPI PUSH2 0x6E5 PUSH2 0x6A8 JUMP JUMPDEST JUMPDEST POP JUMP JUMPDEST PUSH0 DUP2 SWAP1 POP PUSH2 0x6F6 DUP3 PUSH2 0x6D5 JUMP JUMPDEST SWAP2 SWAP1 POP JUMP JUMPDEST PUSH0 PUSH2 0x705 DUP3 PUSH2 0x6E9 JUMP JUMPDEST SWAP1 POP SWAP2 SWAP1 POP JUMP JUMPDEST PUSH2 0x715 DUP2 PUSH2 0x6FB JUMP JUMPDEST DUP3 MSTORE POP POP JUMP JUMPDEST PUSH0 PUSH1 0x20 DUP3 ADD SWAP1 POP PUSH2 0x72E PUSH0 DUP4 ADD DUP5 PUSH2 0x70C JUMP JUMPDEST SWAP3 SWAP2 POP POP JUMP JUMPDEST PUSH0 DUP2 MLOAD SWAP1 POP SWAP2 SWAP1 POP JUMP JUMPDEST PUSH0 DUP3 DUP3 MSTORE PUSH1 0x20 DUP3 ADD SWAP1 POP SWAP3 SWAP2 POP POP JUMP JUMPDEST PUSH0 JUMPDEST DUP4 DUP2 LT ISZERO PUSH2 0x76B JUMPI DUP1 DUP3 ADD MLOAD DUP2 DUP5 ADD MSTORE PUSH1 0x20 DUP2 ADD SWAP1 POP PUSH2 0x750 JUMP JUMPDEST PUSH0 DUP5 DUP5 ADD MSTORE POP POP POP POP JUMP JUMPDEST PUSH0 PUSH1 0x1F NOT PUSH1 0x1F DUP4 ADD AND SWAP1 POP SWAP2 SWAP1 POP JUMP JUMPDEST PUSH0 PUSH2 0x790 DUP3 PUSH2 0x734 JUMP JUMPDEST PUSH2 0x79A DUP2 DUP6 PUSH2 0x73E JUMP JUMPDEST SWAP4 POP PUSH2 0x7AA DUP2 DUP6 PUSH1 0x20 DUP7 ADD PUSH2 0x74E JUMP JUMPDEST PUSH2 0x7B3 DUP2 PUSH2 0x776 JUMP JUMPDEST DUP5 ADD SWAP2 POP POP SWAP3 SWAP2 POP POP JUMP JUMPDEST PUSH0 PUSH1 0xA0 DUP3 ADD SWAP1 POP DUP2 DUP2 SUB PUSH0 DUP4 ADD MSTORE PUSH2 0x7D6 DUP2 DUP9 PUSH2 0x786 JUMP JUMPDEST SWAP1 POP DUP2 DUP2 SUB PUSH1 0x20 DUP4 ADD MSTORE PUSH2 0x7EA DUP2 DUP8 PUSH2 0x786 JUMP JUMPDEST SWAP1 POP PUSH2 0x7F9 PUSH1 0x40 DUP4 ADD DUP7 PUSH2 0x61A JUMP JUMPDEST DUP2 DUP2 SUB PUSH1 0x60 DUP4 ADD MSTORE PUSH2 0x80B DUP2 DUP6 PUSH2 0x786 JUMP JUMPDEST SWAP1 POP PUSH2 0x81A PUSH1 0x80 DUP4 ADD DUP5 PUSH2 0x70C JUMP JUMPDEST SWAP7 SWAP6 POP POP POP POP POP POP JUMP JUMPDEST PUSH0 DUP1 REVERT JUMPDEST PUSH0 DUP1 REVERT JUMPDEST PUSH32 0x4E487B7100000000000000000000000000000000000000000000000000000000 PUSH0 MSTORE PUSH1 0x41 PUSH1 0x4 MSTORE PUSH1 0x24 PUSH0 REVERT JUMPDEST PUSH2 0x862 DUP3 PUSH2 0x776 JUMP JUMPDEST DUP2 ADD DUP2 DUP2 LT PUSH8 0xFFFFFFFFFFFFFFFF DUP3 GT OR ISZERO PUSH2 0x881 JUMPI PUSH2 0x880 PUSH2 0x82C JUMP JUMPDEST JUMPDEST DUP1 PUSH1 0x40 MSTORE POP POP POP JUMP JUMPDEST PUSH0 PUSH2 0x893 PUSH2 0x642 JUMP JUMPDEST SWAP1 POP PUSH2 0x89F DUP3 DUP3 PUSH2 0x859 JUMP JUMPDEST SWAP2 SWAP1 POP JUMP JUMPDEST PUSH0 PUSH8 0xFFFFFFFFFFFFFFFF DUP3 GT ISZERO PUSH2 0x8BE JUMPI PUSH2 0x8BD PUSH2 0x82C JUMP JUMPDEST JUMPDEST PUSH2 0x8C7 DUP3 PUSH2 0x776 JUMP JUMPDEST SWAP1 POP PUSH1 0x20 DUP2 ADD SWAP1 POP SWAP2 SWAP1 POP JUMP JUMPDEST DUP3 DUP2 DUP4 CALLDATACOPY PUSH0 DUP4 DUP4 ADD MSTORE POP POP POP JUMP JUMPDEST PUSH0 PUSH2 0x8F4 PUSH2 0x8EF DUP5 PUSH2 0x8A4 JUMP JUMPDEST PUSH2 0x88A JUMP JUMPDEST SWAP1 POP DUP3 DUP2 MSTORE PUSH1 0x20 DUP2 ADD DUP5 DUP5 DUP5 ADD GT ISZERO PUSH2 0x910 JUMPI PUSH2 0x90F PUSH2 0x828 JUMP JUMPDEST JUMPDEST PUSH2 0x91B DUP5 DUP3 DUP6 PUSH2 0x8D4 JUMP JUMPDEST POP SWAP4 SWAP3 POP POP POP JUMP JUMPDEST PUSH0 DUP3 PUSH1 0x1F DUP4 ADD SLT PUSH2 0x937 JUMPI PUSH2 0x936 PUSH2 0x824 JUMP JUMPDEST JUMPDEST DUP2 CALLDATALOAD PUSH2 0x947 DUP5 DUP3 PUSH1 0x20 DUP7 ADD PUSH2 0x8E2 JUMP JUMPDEST SWAP2 POP POP SWAP3 SWAP2 POP POP JUMP JUMPDEST PUSH0 DUP1 PUSH0 DUP1 PUSH1 0x80 DUP6 DUP8 SUB SLT ISZERO PUSH2 0x968 JUMPI PUSH2 0x967 PUSH2 0x64B JUMP JUMPDEST JUMPDEST PUSH0 DUP6 ADD CALLDATALOAD PUSH8 0xFFFFFFFFFFFFFFFF DUP2 GT ISZERO PUSH2 0x985 JUMPI PUSH2 0x984 PUSH2 0x64F JUMP JUMPDEST JUMPDEST PUSH2 0x991 DUP8 DUP3 DUP9 ADD PUSH2 0x923 JUMP JUMPDEST SWAP5 POP POP PUSH1 0x20 DUP6 ADD CALLDATALOAD PUSH8 0xFFFFFFFFFFFFFFFF DUP2 GT ISZERO PUSH2 0x9B2 JUMPI PUSH2 0x9B1 PUSH2 0x64F JUMP JUMPDEST JUMPDEST PUSH2 0x9BE DUP8 DUP3 DUP9 ADD PUSH2 0x923 JUMP JUMPDEST SWAP4 POP POP PUSH1 0x40 PUSH2 0x9CF DUP8 DUP3 DUP9 ADD PUSH2 0x669 JUMP JUMPDEST SWAP3 POP POP PUSH1 0x60 DUP6 ADD CALLDATALOAD PUSH8 0xFFFFFFFFFFFFFFFF DUP2 GT ISZERO PUSH2 0x9F0 JUMPI PUSH2 0x9EF PUSH2 0x64F JUMP JUMPDEST JUMPDEST PUSH2 0x9FC DUP8 DUP3 DUP9 ADD PUSH2 0x923 JUMP JUMPDEST SWAP2 POP POP SWAP3 SWAP6 SWAP2 SWAP5 POP SWAP3 POP JUMP JUMPDEST PUSH0 PUSH20 0xFFFFFFFFFFFFFFFFFFFFFFFFFFFFFFFFFFFFFFFF DUP3 AND SWAP1 POP SWAP2 SWAP1 POP JUMP JUMPDEST PUSH0 PUSH2 0xA31 DUP3 PUSH2 0xA08 JUMP JUMPDEST SWAP1 POP SWAP2 SWAP1 POP JUMP JUMPDEST PUSH2 0xA41 DUP2 PUSH2 0xA27 JUMP JUMPDEST DUP3 MSTORE POP POP JUMP JUMPDEST PUSH0 PUSH1 0x20 DUP3 ADD SWAP1 POP PUSH2 0xA5A PUSH0 DUP4 ADD DUP5 PUSH2 0xA38 JUMP JUMPDEST SWAP3 SWAP2 POP POP JUMP JUMPDEST PUSH32 0x41646D696E206F6E6C7900000000000000000000000000000000000000000000 PUSH0 DUP3 ADD MSTORE POP JUMP JUMPDEST PUSH0 PUSH2 0xA94 PUSH1 0xA DUP4 PUSH2 0x73E JUMP JUMPDEST SWAP2 POP PUSH2 0xA9F DUP3 PUSH2 0xA60 JUMP JUMPDEST PUSH1 0x20 DUP3 ADD SWAP1 POP SWAP2 SWAP1 POP JUMP JUMPDEST PUSH0 PUSH1 0x20 DUP3 ADD SWAP1 POP DUP2 DUP2 SUB PUSH0 DUP4 ADD MSTORE PUSH2 0xAC1 DUP2 PUSH2 0xA88 JUMP JUMPDEST SWAP1 POP SWAP2 SWAP1 POP JUMP JUMPDEST PUSH32 0x4E487B7100000000000000000000000000000000000000000000000000000000 PUSH0 MSTORE PUSH1 0x22 PUSH1 0x4 MSTORE PUSH1 0x24 PUSH0 REVERT JUMPDEST PUSH0 PUSH1 0x2 DUP3 DIV SWAP1 POP PUSH1 0x1 DUP3 AND DUP1 PUSH2 0xB0C JUMPI PUSH1 0x7F DUP3 AND SWAP2 POP JUMPDEST PUSH1 0x20 DUP3 LT DUP2 SUB PUSH2 0xB1F JUMPI PUSH2 0xB1E PUSH2 0xAC8 JUMP JUMPDEST JUMPDEST POP SWAP2 SWAP1 POP JUMP JUMPDEST PUSH32 0x4E487B7100000000000000000000000000000000000000000000000000000000 PUSH0 MSTORE PUSH1 0x11 PUSH1 0x4 MSTORE PUSH1 0x24 PUSH0 REVERT JUMPDEST PUSH0 PUSH2 0xB5C DUP3 PUSH2 0x611 JUMP JUMPDEST SWAP2 POP PUSH32 0xFFFFFFFFFFFFFFFFFFFFFFFFFFFFFFFFFFFFFFFFFFFFFFFFFFFFFFFFFFFFFFFF DUP3 SUB PUSH2 0xB8E JUMPI PUSH2 0xB8D PUSH2 0xB25 JUMP JUMPDEST JUMPDEST PUSH1 0x1 DUP3 ADD SWAP1 POP SWAP2 SWAP1 POP JUMP JUMPDEST PUSH0 DUP2 SWAP1 POP DUP2 PUSH0 MSTORE PUSH1 0x20 PUSH0 KECCAK256 SWAP1 POP SWAP2 SWAP1 POP JUMP JUMPDEST PUSH0 PUSH1 0x20 PUSH1 0x1F DUP4 ADD DIV SWAP1 POP SWAP2 SWAP1 POP JUMP JUMPDEST PUSH0 DUP3 DUP3 SHL SWAP1 POP SWAP3 SWAP2 POP POP JUMP JUMPDEST PUSH0 PUSH1 0x8 DUP4 MUL PUSH2 0xBF5 PUSH32 0xFFFFFFFFFFFFFFFFFFFFFFFFFFFFFFFFFFFFFFFFFFFFFFFFFFFFFFFFFFFFFFFF DUP3 PUSH2 0xBBA JUMP JUMPDEST PUSH2 0xBFF DUP7 DUP4 PUSH2 0xBBA JUMP JUMPDEST SWAP6 POP DUP1 NOT DUP5 AND SWAP4 POP DUP1 DUP7 AND DUP5 OR SWAP3 POP POP POP SWAP4 SWAP3 POP POP POP JUMP JUMPDEST PUSH0 DUP2 SWAP1 POP SWAP2 SWAP1 POP JUMP JUMPDEST PUSH0 PUSH2 0xC3A PUSH2 0xC35 PUSH2 0xC30 DUP5 PUSH2 0x611 JUMP JUMPDEST PUSH2 0xC17 JUMP JUMPDEST PUSH2 0x611 JUMP JUMPDEST SWAP1 POP SWAP2 SWAP1 POP JUMP JUMPDEST PUSH0 DUP2 SWAP1 POP SWAP2 SWAP1 POP JUMP JUMPDEST PUSH2 0xC53 DUP4 PUSH2 0xC20 JUMP JUMPDEST PUSH2 0xC67 PUSH2 0xC5F DUP3 PUSH2 0xC41 JUMP JUMPDEST DUP5 DUP5 SLOAD PUSH2 0xBC6 JUMP JUMPDEST DUP3 SSTORE POP POP POP POP JUMP JUMPDEST PUSH0 SWAP1 JUMP JUMPDEST PUSH2 0xC7B PUSH2 0xC6F JUMP JUMPDEST PUSH2 0xC86 DUP2 DUP5 DUP5 PUSH2 0xC4A JUMP JUMPDEST POP POP POP JUMP JUMPDEST JUMPDEST DUP2 DUP2 LT ISZERO PUSH2 0xCA9 JUMPI PUSH2 0xC9E PUSH0 DUP3 PUSH2 0xC73 JUMP JUMPDEST PUSH1 0x1 DUP2 ADD SWAP1 POP PUSH2 0xC8C JUMP JUMPDEST POP POP JUMP JUMPDEST PUSH1 0x1F DUP3 GT ISZERO PUSH2 0xCEE JUMPI PUSH2 0xCBF DUP2 PUSH2 0xB99 JUMP JUMPDEST PUSH2 0xCC8 DUP5 PUSH2 0xBAB JUMP JUMPDEST DUP2 ADD PUSH1 0x20 DUP6 LT ISZERO PUSH2 0xCD7 JUMPI DUP2 SWAP1 POP JUMPDEST PUSH2 0xCEB PUSH2 0xCE3 DUP6 PUSH2 0xBAB JUMP JUMPDEST DUP4 ADD DUP3 PUSH2 0xC8B JUMP JUMPDEST POP POP JUMPDEST POP POP POP JUMP JUMPDEST PUSH0 DUP3 DUP3 SHR SWAP1 POP SWAP3 SWAP2 POP POP JUMP JUMPDEST PUSH0 PUSH2 0xD0E PUSH0 NOT DUP5 PUSH1 0x8 MUL PUSH2 0xCF3 JUMP JUMPDEST NOT DUP1 DUP4 AND SWAP2 POP POP SWAP3 SWAP2 POP POP JUMP JUMPDEST PUSH0 PUSH2 0xD26 DUP4 DUP4 PUSH2 0xCFF JUMP JUMPDEST SWAP2 POP DUP3 PUSH1 0x2 MUL DUP3 OR SWAP1 POP SWAP3 SWAP2 POP POP JUMP JUMPDEST PUSH2 0xD3F DUP3 PUSH2 0x734 JUMP JUMPDEST PUSH8 0xFFFFFFFFFFFFFFFF DUP2 GT ISZERO PUSH2 0xD58 JUMPI PUSH2 0xD57 PUSH2 0x82C JUMP JUMPDEST JUMPDEST PUSH2 0xD62 DUP3 SLOAD PUSH2 0xAF5 JUMP JUMPDEST PUSH2 0xD6D DUP3 DUP3 DUP6 PUSH2 0xCAD JUMP JUMPDEST PUSH0 PUSH1 0x20 SWAP1 POP PUSH1 0x1F DUP4 GT PUSH1 0x1 DUP2 EQ PUSH2 0xD9E JUMPI PUSH0 DUP5 ISZERO PUSH2 0xD8C JUMPI DUP3 DUP8 ADD MLOAD SWAP1 POP JUMPDEST PUSH2 0xD96 DUP6 DUP3 PUSH2 0xD1B JUMP JUMPDEST DUP7 SSTORE POP PUSH2 0xDFD JUMP JUMPDEST PUSH1 0x1F NOT DUP5 AND PUSH2 0xDAC DUP7 PUSH2 0xB99 JUMP JUMPDEST PUSH0 JUMPDEST DUP3 DUP2 LT ISZERO PUSH2 0xDD3 JUMPI DUP5 DUP10 ADD MLOAD DUP3 SSTORE PUSH1 0x1 DUP3 ADD SWAP2 POP PUSH1 0x20 DUP6 ADD SWAP5 POP PUSH1 0x20 DUP2 ADD SWAP1 POP PUSH2 0xDAE JUMP JUMPDEST DUP7 DUP4 LT ISZERO PUSH2 0xDF0 JUMPI DUP5 DUP10 ADD MLOAD PUSH2 0xDEC PUSH1 0x1F DUP10 AND DUP3 PUSH2 0xCFF JUMP JUMPDEST DUP4 SSTORE POP JUMPDEST PUSH1 0x1 PUSH1 0x2 DUP9 MUL ADD DUP9 SSTORE POP POP POP JUMPDEST POP POP POP POP POP POP JUMP INVALID LOG2 PUSH5 0x6970667358 0x22 SLT KECCAK256 0xF8 LOG4 0xB5 0xCD PUSH20 0x56DE97476643C3F4689E9827FD1D328F5F176C01 ADDMOD 0xEC EXTCODECOPY 0x22 0xC9 0xDF GAS PUSH5 0x736F6C6343 STOP ADDMOD EQ STOP CALLER "
				},
				"gasEstimates": {
					"creation": {
						"codeDepositCost": "728600",
						"executionCost": "25023",
						"totalCost": "753623"
					},
					"external": {
						"admin()": "2571",
						"checkStatus(uint256)": "2927",
						"paymentCount()": "2426",
						"payments(uint256)": "infinite",
						"rejectPayment(uint256)": "26957",
						"submitPayment(string,string,uint256,string)": "infinite",
						"verifyPayment(uint256)": "26980"
					}
				},
				"methodIdentifiers": {
					"admin()": "f851a440",
					"checkStatus(uint256)": "2858c764",
					"paymentCount()": "0937e68a",
					"payments(uint256)": "87d81789",
					"rejectPayment(uint256)": "8d920b02",
					"submitPayment(string,string,uint256,string)": "b9c6664d",
					"verifyPayment(uint256)": "5b057fd1"
				}
			},
			"storageLayout": {
				"storage": [
					{
						"astId": 3,
						"contract": "EduPayChain.sol:EduPayChain",
						"label": "admin",
						"offset": 0,
						"slot": "0",
						"type": "t_address"
					},
					{
						"astId": 24,
						"contract": "EduPayChain.sol:EduPayChain",
						"label": "payments",
						"offset": 0,
						"slot": "1",
						"type": "t_mapping(t_uint256,t_struct(Payment)19_storage)"
					},
					{
						"astId": 26,
						"contract": "EduPayChain.sol:EduPayChain",
						"label": "paymentCount",
						"offset": 0,
						"slot": "2",
						"type": "t_uint256"
					}
				],
				"types": {
					"t_address": {
						"encoding": "inplace",
						"label": "address",
						"numberOfBytes": "20"
					},
					"t_enum(Status)7": {
						"encoding": "inplace",
						"label": "enum EduPayChain.Status",
						"numberOfBytes": "1"
					},
					"t_mapping(t_uint256,t_struct(Payment)19_storage)": {
						"encoding": "mapping",
						"key": "t_uint256",
						"label": "mapping(uint256 => struct EduPayChain.Payment)",
						"numberOfBytes": "32",
						"value": "t_struct(Payment)19_storage"
					},
					"t_string_storage": {
						"encoding": "bytes",
						"label": "string",
						"numberOfBytes": "32"
					},
					"t_struct(Payment)19_storage": {
						"encoding": "inplace",
						"label": "struct EduPayChain.Payment",
						"members": [
							{
								"astId": 9,
								"contract": "EduPayChain.sol:EduPayChain",
								"label": "nim",
								"offset": 0,
								"slot": "0",
								"type": "t_string_storage"
							},
							{
								"astId": 11,
								"contract": "EduPayChain.sol:EduPayChain",
								"label": "semester",
								"offset": 0,
								"slot": "1",
								"type": "t_string_storage"
							},
							{
								"astId": 13,
								"contract": "EduPayChain.sol:EduPayChain",
								"label": "amount",
								"offset": 0,
								"slot": "2",
								"type": "t_uint256"
							},
							{
								"astId": 15,
								"contract": "EduPayChain.sol:EduPayChain",
								"label": "proofHash",
								"offset": 0,
								"slot": "3",
								"type": "t_string_storage"
							},
							{
								"astId": 18,
								"contract": "EduPayChain.sol:EduPayChain",
								"label": "status",
								"offset": 0,
								"slot": "4",
								"type": "t_enum(Status)7"
							}
						],
						"numberOfBytes": "160"
					},
					"t_uint256": {
						"encoding": "inplace",
						"label": "uint256",
						"numberOfBytes": "32"
					}
				}
			},
			"userdoc": {
				"kind": "user",
				"methods": {},
				"version": 1
			}
		}
	}
}